{
  "contractName": "DonationTracker",
  "abi": [
    {
      "inputs": [],
      "stateMutability": "nonpayable",
      "type": "constructor"
    },
    {
      "anonymous": false,
      "inputs": [
        {
          "indexed": true,
          "internalType": "address",
          "name": "owner",
          "type": "address"
        },
        {
          "indexed": true,
          "internalType": "address",
          "name": "spender",
          "type": "address"
        },
        {
          "indexed": false,
          "internalType": "uint256",
          "name": "value",
          "type": "uint256"
        }
      ],
      "name": "Approval",
      "type": "event"
    },
    {
      "anonymous": false,
      "inputs": [
        {
          "indexed": true,
          "internalType": "address",
          "name": "donor",
          "type": "address"
        },
        {
          "indexed": false,
          "internalType": "uint256",
          "name": "amount",
          "type": "uint256"
        },
        {
          "indexed": false,
          "internalType": "string",
          "name": "category",
          "type": "string"
        },
        {
          "indexed": false,
          "internalType": "uint256",
          "name": "timestamp",
          "type": "uint256"
        }
      ],
      "name": "DonationMade",
      "type": "event"
    },
    {
      "anonymous": false,
      "inputs": [
        {
          "indexed": true,
          "internalType": "address",
          "name": "previousOwner",
          "type": "address"
        },
        {
          "indexed": true,
          "internalType": "address",
          "name": "newOwner",
          "type": "address"
        }
      ],
      "name": "OwnershipTransferred",
      "type": "event"
    },
    {
      "anonymous": false,
      "inputs": [
        {
          "indexed": true,
          "internalType": "address",
          "name": "from",
          "type": "address"
        },
        {
          "indexed": true,
          "internalType": "address",
          "name": "to",
          "type": "address"
        },
        {
          "indexed": false,
          "internalType": "uint256",
          "name": "value",
          "type": "uint256"
        }
      ],
      "name": "Transfer",
      "type": "event"
    },
    {
      "inputs": [
        {
          "internalType": "address",
          "name": "owner",
          "type": "address"
        },
        {
          "internalType": "address",
          "name": "spender",
          "type": "address"
        }
      ],
      "name": "allowance",
      "outputs": [
        {
          "internalType": "uint256",
          "name": "",
          "type": "uint256"
        }
      ],
      "stateMutability": "view",
      "type": "function",
      "constant": true
    },
    {
      "inputs": [
        {
          "internalType": "address",
          "name": "spender",
          "type": "address"
        },
        {
          "internalType": "uint256",
          "name": "amount",
          "type": "uint256"
        }
      ],
      "name": "approve",
      "outputs": [
        {
          "internalType": "bool",
          "name": "",
          "type": "bool"
        }
      ],
      "stateMutability": "nonpayable",
      "type": "function"
    },
    {
      "inputs": [
        {
          "internalType": "address",
          "name": "account",
          "type": "address"
        }
      ],
      "name": "balanceOf",
      "outputs": [
        {
          "internalType": "uint256",
          "name": "",
          "type": "uint256"
        }
      ],
      "stateMutability": "view",
      "type": "function",
      "constant": true
    },
    {
      "inputs": [],
      "name": "decimals",
      "outputs": [
        {
          "internalType": "uint8",
          "name": "",
          "type": "uint8"
        }
      ],
      "stateMutability": "view",
      "type": "function",
      "constant": true
    },
    {
      "inputs": [
        {
          "internalType": "address",
          "name": "spender",
          "type": "address"
        },
        {
          "internalType": "uint256",
          "name": "subtractedValue",
          "type": "uint256"
        }
      ],
      "name": "decreaseAllowance",
      "outputs": [
        {
          "internalType": "bool",
          "name": "",
          "type": "bool"
        }
      ],
      "stateMutability": "nonpayable",
      "type": "function"
    },
    {
      "inputs": [
        {
          "internalType": "address",
          "name": "spender",
          "type": "address"
        },
        {
          "internalType": "uint256",
          "name": "addedValue",
          "type": "uint256"
        }
      ],
      "name": "increaseAllowance",
      "outputs": [
        {
          "internalType": "bool",
          "name": "",
          "type": "bool"
        }
      ],
      "stateMutability": "nonpayable",
      "type": "function"
    },
    {
      "inputs": [],
      "name": "name",
      "outputs": [
        {
          "internalType": "string",
          "name": "",
          "type": "string"
        }
      ],
      "stateMutability": "view",
      "type": "function",
      "constant": true
    },
    {
      "inputs": [],
      "name": "owner",
      "outputs": [
        {
          "internalType": "address",
          "name": "",
          "type": "address"
        }
      ],
      "stateMutability": "view",
      "type": "function",
      "constant": true
    },
    {
      "inputs": [],
      "name": "renounceOwnership",
      "outputs": [],
      "stateMutability": "nonpayable",
      "type": "function"
    },
    {
      "inputs": [],
      "name": "symbol",
      "outputs": [
        {
          "internalType": "string",
          "name": "",
          "type": "string"
        }
      ],
      "stateMutability": "view",
      "type": "function",
      "constant": true
    },
    {
      "inputs": [],
      "name": "totalSupply",
      "outputs": [
        {
          "internalType": "uint256",
          "name": "",
          "type": "uint256"
        }
      ],
      "stateMutability": "view",
      "type": "function",
      "constant": true
    },
    {
      "inputs": [
        {
          "internalType": "address",
          "name": "recipient",
          "type": "address"
        },
        {
          "internalType": "uint256",
          "name": "amount",
          "type": "uint256"
        }
      ],
      "name": "transfer",
      "outputs": [
        {
          "internalType": "bool",
          "name": "",
          "type": "bool"
        }
      ],
      "stateMutability": "nonpayable",
      "type": "function"
    },
    {
      "inputs": [
        {
          "internalType": "address",
          "name": "sender",
          "type": "address"
        },
        {
          "internalType": "address",
          "name": "recipient",
          "type": "address"
        },
        {
          "internalType": "uint256",
          "name": "amount",
          "type": "uint256"
        }
      ],
      "name": "transferFrom",
      "outputs": [
        {
          "internalType": "bool",
          "name": "",
          "type": "bool"
        }
      ],
      "stateMutability": "nonpayable",
      "type": "function"
    },
    {
      "inputs": [
        {
          "internalType": "address",
          "name": "newOwner",
          "type": "address"
        }
      ],
      "name": "transferOwnership",
      "outputs": [],
      "stateMutability": "nonpayable",
      "type": "function"
    },
    {
      "inputs": [
        {
          "internalType": "string",
          "name": "category",
          "type": "string"
        }
      ],
      "name": "donate",
      "outputs": [],
      "stateMutability": "payable",
      "type": "function",
      "payable": true
    },
    {
      "inputs": [
        {
          "internalType": "string",
          "name": "category",
          "type": "string"
        }
      ],
      "name": "getDonationsByCategory",
      "outputs": [
        {
          "components": [
            {
              "internalType": "address",
              "name": "donor",
              "type": "address"
            },
            {
              "internalType": "uint256",
              "name": "amount",
              "type": "uint256"
            },
            {
              "internalType": "string",
              "name": "category",
              "type": "string"
            },
            {
              "internalType": "uint256",
              "name": "timestamp",
              "type": "uint256"
            }
          ],
          "internalType": "struct DonationTracker.Donation[]",
          "name": "",
          "type": "tuple[]"
        }
      ],
      "stateMutability": "view",
      "type": "function",
      "constant": true
    }
  ],
  "bytecode": "0x6080604052736132b99815e22d9de3f6db075459631e6664a94a600760006101000a81548173ffffffffffffffffffffffffffffffffffffffff021916908373ffffffffffffffffffffffffffffffffffffffff160217905550736afc290339e04027bbe5477eea0708a8cd678c98600860006101000a81548173ffffffffffffffffffffffffffffffffffffffff021916908373ffffffffffffffffffffffffffffffffffffffff16021790555073967127f5b529ba503df631fd995beca94789f2eb600960006101000a81548173ffffffffffffffffffffffffffffffffffffffff021916908373ffffffffffffffffffffffffffffffffffffffff1602179055503480156200011057600080fd5b506040518060400160405280600d81526020017f446f6e6174696f6e546f6b656e000000000000000000000000000000000000008152506040518060400160405280600381526020017f44544b00000000000000000000000000000000000000000000000000000000008152508160039080519060200190620001959291906200046f565b508060049080519060200190620001ae9291906200046f565b505050620001d1620001c56200021560201b60201c565b6200021d60201b60201c565b6200020f33620001e6620002e360201b60201c565b600a620001f491906200067a565b6103e8620002039190620007b7565b620002ec60201b60201c565b620008d0565b600033905090565b6000600560009054906101000a900473ffffffffffffffffffffffffffffffffffffffff16905081600560006101000a81548173ffffffffffffffffffffffffffffffffffffffff021916908373ffffffffffffffffffffffffffffffffffffffff1602179055508173ffffffffffffffffffffffffffffffffffffffff168173ffffffffffffffffffffffffffffffffffffffff167f8be0079c531659141344cd1fd0a4f28419497f9722a3daafe3b4186f6b6457e060405160405180910390a35050565b60006012905090565b600073ffffffffffffffffffffffffffffffffffffffff168273ffffffffffffffffffffffffffffffffffffffff1614156200035f576040517f08c379a0000000000000000000000000000000000000000000000000000000008152600401620003569062000572565b60405180910390fd5b62000373600083836200046560201b60201c565b8060026000828254620003879190620005c2565b92505081905550806000808473ffffffffffffffffffffffffffffffffffffffff1673ffffffffffffffffffffffffffffffffffffffff1681526020019081526020016000206000828254620003de9190620005c2565b925050819055508173ffffffffffffffffffffffffffffffffffffffff16600073ffffffffffffffffffffffffffffffffffffffff167fddf252ad1be2c89b69c2b068fc378daa952ba7f163c4a11628f55a4df523b3ef8360405162000445919062000594565b60405180910390a362000461600083836200046a60201b60201c565b5050565b505050565b505050565b8280546200047d906200082f565b90600052602060002090601f016020900481019282620004a15760008555620004ed565b82601f10620004bc57805160ff1916838001178555620004ed565b82800160010185558215620004ed579182015b82811115620004ec578251825591602001919060010190620004cf565b5b509050620004fc919062000500565b5090565b5b808211156200051b57600081600090555060010162000501565b5090565b60006200052e601f83620005b1565b91507f45524332303a206d696e7420746f20746865207a65726f2061646472657373006000830152602082019050919050565b6200056c8162000818565b82525050565b600060208201905081810360008301526200058d816200051f565b9050919050565b6000602082019050620005ab600083018462000561565b92915050565b600082825260208201905092915050565b6000620005cf8262000818565b9150620005dc8362000818565b9250827fffffffffffffffffffffffffffffffffffffffffffffffffffffffffffffffff0382111562000614576200061362000865565b5b828201905092915050565b6000808291508390505b6001851115620006715780860481111562000649576200064862000865565b5b6001851615620006595780820291505b80810290506200066985620008c3565b945062000629565b94509492505050565b6000620006878262000818565b9150620006948362000822565b9250620006c37fffffffffffffffffffffffffffffffffffffffffffffffffffffffffffffffff8484620006cb565b905092915050565b600082620006dd5760019050620007b0565b81620006ed5760009050620007b0565b8160018114620007065760028114620007115762000747565b6001915050620007b0565b60ff84111562000726576200072562000865565b5b8360020a91508482111562000740576200073f62000865565b5b50620007b0565b5060208310610133831016604e8410600b8410161715620007815782820a9050838111156200077b576200077a62000865565b5b620007b0565b6200079084848460016200061f565b92509050818404811115620007aa57620007a962000865565b5b81810290505b9392505050565b6000620007c48262000818565b9150620007d18362000818565b9250817fffffffffffffffffffffffffffffffffffffffffffffffffffffffffffffffff04831182151516156200080d576200080c62000865565b5b828202905092915050565b6000819050919050565b600060ff82169050919050565b600060028204905060018216806200084857607f821691505b602082108114156200085f576200085e62000894565b5b50919050565b7f4e487b7100000000000000000000000000000000000000000000000000000000600052601160045260246000fd5b7f4e487b7100000000000000000000000000000000000000000000000000000000600052602260045260246000fd5b60008160011c9050919050565b6123f480620008e06000396000f3fe6080604052600436106100f35760003560e01c8063715018a61161008a578063a9059cbb11610059578063a9059cbb14610354578063b5aebc8014610391578063dd62ed3e146103ad578063f2fde38b146103ea576100f3565b8063715018a6146102aa5780638da5cb5b146102c157806395d89b41146102ec578063a457c2d714610317576100f3565b8063313ce567116100c6578063313ce567146101c857806339509351146101f35780634e17d2d31461023057806370a082311461026d576100f3565b806306fdde03146100f8578063095ea7b31461012357806318160ddd1461016057806323b872dd1461018b575b600080fd5b34801561010457600080fd5b5061010d610413565b60405161011a9190611f0b565b60405180910390f35b34801561012f57600080fd5b5061014a60048036038101906101459190611721565b6104a5565b6040516101579190611ef0565b60405180910390f35b34801561016c57600080fd5b506101756104c3565b604051610182919061208d565b60405180910390f35b34801561019757600080fd5b506101b260048036038101906101ad91906116d2565b6104cd565b6040516101bf9190611ef0565b60405180910390f35b3480156101d457600080fd5b506101dd6105c5565b6040516101ea91906120e6565b60405180910390f35b3480156101ff57600080fd5b5061021a60048036038101906102159190611721565b6105ce565b6040516102279190611ef0565b60405180910390f35b34801561023c57600080fd5b506102576004803603810190610252919061175d565b61067a565b6040516102649190611ece565b60405180910390f35b34801561027957600080fd5b50610294600480360381019061028f919061166d565b6107f3565b6040516102a1919061208d565b60405180910390f35b3480156102b657600080fd5b506102bf61083b565b005b3480156102cd57600080fd5b506102d66108c3565b6040516102e39190611eb3565b60405180910390f35b3480156102f857600080fd5b506103016108ed565b60405161030e9190611f0b565b60405180910390f35b34801561032357600080fd5b5061033e60048036038101906103399190611721565b61097f565b60405161034b9190611ef0565b60405180910390f35b34801561036057600080fd5b5061037b60048036038101906103769190611721565b610a6a565b6040516103889190611ef0565b60405180910390f35b6103ab60048036038101906103a6919061175d565b610a88565b005b3480156103b957600080fd5b506103d460048036038101906103cf9190611696565b610e95565b6040516103e1919061208d565b60405180910390f35b3480156103f657600080fd5b50610411600480360381019061040c919061166d565b610f1c565b005b606060038054610422906122c0565b80601f016020809104026020016040519081016040528092919081815260200182805461044e906122c0565b801561049b5780601f106104705761010080835404028352916020019161049b565b820191906000526020600020905b81548152906001019060200180831161047e57829003601f168201915b5050505050905090565b60006104b96104b2611014565b848461101c565b6001905092915050565b6000600254905090565b60006104da8484846111e7565b6000600160008673ffffffffffffffffffffffffffffffffffffffff1673ffffffffffffffffffffffffffffffffffffffff1681526020019081526020016000206000610525611014565b73ffffffffffffffffffffffffffffffffffffffff1673ffffffffffffffffffffffffffffffffffffffff168152602001908152602001600020549050828110156105a5576040517f08c379a000000000000000000000000000000000000000000000000000000000815260040161059c90611fcd565b60405180910390fd5b6105b9856105b1611014565b85840361101c565b60019150509392505050565b60006012905090565b60006106706105db611014565b8484600160006105e9611014565b73ffffffffffffffffffffffffffffffffffffffff1673ffffffffffffffffffffffffffffffffffffffff16815260200190815260200160002060008873ffffffffffffffffffffffffffffffffffffffff1673ffffffffffffffffffffffffffffffffffffffff1681526020019081526020016000205461066b91906121d3565b61101c565b6001905092915050565b606060068260405161068c9190611e5d565b9081526020016040518091039020805480602002602001604051908101604052809291908181526020016000905b828210156107e857838290600052602060002090600402016040518060800160405290816000820160009054906101000a900473ffffffffffffffffffffffffffffffffffffffff1673ffffffffffffffffffffffffffffffffffffffff1673ffffffffffffffffffffffffffffffffffffffff1681526020016001820154815260200160028201805461074d906122c0565b80601f0160208091040260200160405190810160405280929190818152602001828054610779906122c0565b80156107c65780601f1061079b576101008083540402835291602001916107c6565b820191906000526020600020905b8154815290600101906020018083116107a957829003601f168201915b50505050508152602001600382015481525050815260200190600101906106ba565b505050509050919050565b60008060008373ffffffffffffffffffffffffffffffffffffffff1673ffffffffffffffffffffffffffffffffffffffff168152602001908152602001600020549050919050565b610843611014565b73ffffffffffffffffffffffffffffffffffffffff166108616108c3565b73ffffffffffffffffffffffffffffffffffffffff16146108b7576040517f08c379a00000000000000000000000000000000000000000000000000000000081526004016108ae90611fed565b60405180910390fd5b6108c16000611468565b565b6000600560009054906101000a900473ffffffffffffffffffffffffffffffffffffffff16905090565b6060600480546108fc906122c0565b80601f0160208091040260200160405190810160405280929190818152602001828054610928906122c0565b80156109755780601f1061094a57610100808354040283529160200191610975565b820191906000526020600020905b81548152906001019060200180831161095857829003601f168201915b5050505050905090565b6000806001600061098e611014565b73ffffffffffffffffffffffffffffffffffffffff1673ffffffffffffffffffffffffffffffffffffffff16815260200190815260200160002060008573ffffffffffffffffffffffffffffffffffffffff1673ffffffffffffffffffffffffffffffffffffffff16815260200190815260200160002054905082811015610a4b576040517f08c379a0000000000000000000000000000000000000000000000000000000008152600401610a429061206d565b60405180910390fd5b610a5f610a56611014565b8585840361101c565b600191505092915050565b6000610a7e610a77611014565b84846111e7565b6001905092915050565b60003411610acb576040517f08c379a0000000000000000000000000000000000000000000000000000000008152600401610ac290611f4d565b60405180910390fd5b604051602001610ada90611e89565b6040516020818303038152906040528051906020012081604051602001610b019190611e5d565b604051602081830303815290604052805190602001201415610b8b57600760009054906101000a900473ffffffffffffffffffffffffffffffffffffffff1673ffffffffffffffffffffffffffffffffffffffff166108fc349081150290604051600060405180830381858888f19350505050158015610b85573d6000803e3d6000fd5b50610d48565b604051602001610b9a90611e74565b6040516020818303038152906040528051906020012081604051602001610bc19190611e5d565b604051602081830303815290604052805190602001201415610c4b57600860009054906101000a900473ffffffffffffffffffffffffffffffffffffffff1673ffffffffffffffffffffffffffffffffffffffff166108fc349081150290604051600060405180830381858888f19350505050158015610c45573d6000803e3d6000fd5b50610d47565b604051602001610c5a90611e9e565b6040516020818303038152906040528051906020012081604051602001610c819190611e5d565b604051602081830303815290604052805190602001201415610d0b57600960009054906101000a900473ffffffffffffffffffffffffffffffffffffffff1673ffffffffffffffffffffffffffffffffffffffff166108fc349081150290604051600060405180830381858888f19350505050158015610d05573d6000803e3d6000fd5b50610d46565b6040517f08c379a0000000000000000000000000000000000000000000000000000000008152600401610d3d9061202d565b60405180910390fd5b5b5b600681604051610d589190611e5d565b908152602001604051809103902060405180608001604052803373ffffffffffffffffffffffffffffffffffffffff16815260200134815260200183815260200142815250908060018154018082558091505060019003906000526020600020906004020160009091909190915060008201518160000160006101000a81548173ffffffffffffffffffffffffffffffffffffffff021916908373ffffffffffffffffffffffffffffffffffffffff160217905550602082015181600101556040820151816002019080519060200190610e33929190611538565b506060820151816003015550503373ffffffffffffffffffffffffffffffffffffffff167f8580ecae95ac2e0205deed43d40b277d8d0329bbd0adeb855e64c9e88737340f348342604051610e8a939291906120a8565b60405180910390a250565b6000600160008473ffffffffffffffffffffffffffffffffffffffff1673ffffffffffffffffffffffffffffffffffffffff16815260200190815260200160002060008373ffffffffffffffffffffffffffffffffffffffff1673ffffffffffffffffffffffffffffffffffffffff16815260200190815260200160002054905092915050565b610f24611014565b73ffffffffffffffffffffffffffffffffffffffff16610f426108c3565b73ffffffffffffffffffffffffffffffffffffffff1614610f98576040517f08c379a0000000000000000000000000000000000000000000000000000000008152600401610f8f90611fed565b60405180910390fd5b600073ffffffffffffffffffffffffffffffffffffffff168173ffffffffffffffffffffffffffffffffffffffff161415611008576040517f08c379a0000000000000000000000000000000000000000000000000000000008152600401610fff90611f6d565b60405180910390fd5b61101181611468565b50565b600033905090565b600073ffffffffffffffffffffffffffffffffffffffff168373ffffffffffffffffffffffffffffffffffffffff16141561108c576040517f08c379a00000000000000000000000000000000000000000000000000000000081526004016110839061204d565b60405180910390fd5b600073ffffffffffffffffffffffffffffffffffffffff168273ffffffffffffffffffffffffffffffffffffffff1614156110fc576040517f08c379a00000000000000000000000000000000000000000000000000000000081526004016110f390611f8d565b60405180910390fd5b80600160008573ffffffffffffffffffffffffffffffffffffffff1673ffffffffffffffffffffffffffffffffffffffff16815260200190815260200160002060008473ffffffffffffffffffffffffffffffffffffffff1673ffffffffffffffffffffffffffffffffffffffff168152602001908152602001600020819055508173ffffffffffffffffffffffffffffffffffffffff168373ffffffffffffffffffffffffffffffffffffffff167f8c5be1e5ebec7d5bd14f71427d1e84f3dd0314c0f7b2291e5b200ac8c7c3b925836040516111da919061208d565b60405180910390a3505050565b600073ffffffffffffffffffffffffffffffffffffffff168373ffffffffffffffffffffffffffffffffffffffff161415611257576040517f08c379a000000000000000000000000000000000000000000000000000000000815260040161124e9061200d565b60405180910390fd5b600073ffffffffffffffffffffffffffffffffffffffff168273ffffffffffffffffffffffffffffffffffffffff1614156112c7576040517f08c379a00000000000000000000000000000000000000000000000000000000081526004016112be90611f2d565b60405180910390fd5b6112d283838361152e565b60008060008573ffffffffffffffffffffffffffffffffffffffff1673ffffffffffffffffffffffffffffffffffffffff16815260200190815260200160002054905081811015611358576040517f08c379a000000000000000000000000000000000000000000000000000000000815260040161134f90611fad565b60405180910390fd5b8181036000808673ffffffffffffffffffffffffffffffffffffffff1673ffffffffffffffffffffffffffffffffffffffff16815260200190815260200160002081905550816000808573ffffffffffffffffffffffffffffffffffffffff1673ffffffffffffffffffffffffffffffffffffffff16815260200190815260200160002060008282546113eb91906121d3565b925050819055508273ffffffffffffffffffffffffffffffffffffffff168473ffffffffffffffffffffffffffffffffffffffff167fddf252ad1be2c89b69c2b068fc378daa952ba7f163c4a11628f55a4df523b3ef8460405161144f919061208d565b60405180910390a3611462848484611533565b50505050565b6000600560009054906101000a900473ffffffffffffffffffffffffffffffffffffffff16905081600560006101000a81548173ffffffffffffffffffffffffffffffffffffffff021916908373ffffffffffffffffffffffffffffffffffffffff1602179055508173ffffffffffffffffffffffffffffffffffffffff168173ffffffffffffffffffffffffffffffffffffffff167f8be0079c531659141344cd1fd0a4f28419497f9722a3daafe3b4186f6b6457e060405160405180910390a35050565b505050565b505050565b828054611544906122c0565b90600052602060002090601f01602090048101928261156657600085556115ad565b82601f1061157f57805160ff19168380011785556115ad565b828001600101855582156115ad579182015b828111156115ac578251825591602001919060010190611591565b5b5090506115ba91906115be565b5090565b5b808211156115d75760008160009055506001016115bf565b5090565b60006115ee6115e984612132565b612101565b90508281526020810184848401111561160657600080fd5b61161184828561227e565b509392505050565b60008135905061162881612390565b92915050565b600082601f83011261163f57600080fd5b813561164f8482602086016115db565b91505092915050565b600081359050611667816123a7565b92915050565b60006020828403121561167f57600080fd5b600061168d84828501611619565b91505092915050565b600080604083850312156116a957600080fd5b60006116b785828601611619565b92505060206116c885828601611619565b9150509250929050565b6000806000606084860312156116e757600080fd5b60006116f586828701611619565b935050602061170686828701611619565b925050604061171786828701611658565b9150509250925092565b6000806040838503121561173457600080fd5b600061174285828601611619565b925050602061175385828601611658565b9150509250929050565b60006020828403121561176f57600080fd5b600082013567ffffffffffffffff81111561178957600080fd5b6117958482850161162e565b91505092915050565b60006117aa8383611dcd565b905092915050565b6117bb81612229565b82525050565b6117ca81612229565b82525050565b60006117db82612172565b6117e58185612195565b9350836020820285016117f785612162565b8060005b858110156118335784840389528151611814858261179e565b945061181f83612188565b925060208a019950506001810190506117fb565b50829750879550505050505092915050565b61184e8161223b565b82525050565b600061185f8261217d565b61186981856121a6565b935061187981856020860161228d565b6118828161237f565b840191505092915050565b60006118988261217d565b6118a281856121b7565b93506118b281856020860161228d565b6118bb8161237f565b840191505092915050565b60006118d18261217d565b6118db81856121c8565b93506118eb81856020860161228d565b80840191505092915050565b60006119046009836121c8565b91507f656475636174696f6e00000000000000000000000000000000000000000000006000830152600982019050919050565b60006119446023836121b7565b91507f45524332303a207472616e7366657220746f20746865207a65726f206164647260008301527f65737300000000000000000000000000000000000000000000000000000000006020830152604082019050919050565b60006119aa6022836121b7565b91507f446f6e6174696f6e206d7573742062652067726561746572207468616e207a6560008301527f726f0000000000000000000000000000000000000000000000000000000000006020830152604082019050919050565b6000611a106026836121b7565b91507f4f776e61626c653a206e6577206f776e657220697320746865207a65726f206160008301527f64647265737300000000000000000000000000000000000000000000000000006020830152604082019050919050565b6000611a766022836121b7565b91507f45524332303a20617070726f766520746f20746865207a65726f20616464726560008301527f73730000000000000000000000000000000000000000000000000000000000006020830152604082019050919050565b6000611adc600a836121c8565b91507f6865616c746863617265000000000000000000000000000000000000000000006000830152600a82019050919050565b6000611b1c6026836121b7565b91507f45524332303a207472616e7366657220616d6f756e742065786365656473206260008301527f616c616e636500000000000000000000000000000000000000000000000000006020830152604082019050919050565b6000611b826009836121c8565b91507f6c6966657374796c6500000000000000000000000000000000000000000000006000830152600982019050919050565b6000611bc26028836121b7565b91507f45524332303a207472616e7366657220616d6f756e742065786365656473206160008301527f6c6c6f77616e63650000000000000000000000000000000000000000000000006020830152604082019050919050565b6000611c286020836121b7565b91507f4f776e61626c653a2063616c6c6572206973206e6f7420746865206f776e65726000830152602082019050919050565b6000611c686025836121b7565b91507f45524332303a207472616e736665722066726f6d20746865207a65726f20616460008301527f64726573730000000000000000000000000000000000000000000000000000006020830152604082019050919050565b6000611cce6010836121b7565b91507f496e76616c69642063617465676f7279000000000000000000000000000000006000830152602082019050919050565b6000611d0e6024836121b7565b91507f45524332303a20617070726f76652066726f6d20746865207a65726f2061646460008301527f72657373000000000000000000000000000000000000000000000000000000006020830152604082019050919050565b6000611d746025836121b7565b91507f45524332303a2064656372656173656420616c6c6f77616e63652062656c6f7760008301527f207a65726f0000000000000000000000000000000000000000000000000000006020830152604082019050919050565b6000608083016000830151611de560008601826117b2565b506020830151611df86020860182611e30565b5060408301518482036040860152611e108282611854565b9150506060830151611e256060860182611e30565b508091505092915050565b611e3981612267565b82525050565b611e4881612267565b82525050565b611e5781612271565b82525050565b6000611e6982846118c6565b915081905092915050565b6000611e7f826118f7565b9150819050919050565b6000611e9482611acf565b9150819050919050565b6000611ea982611b75565b9150819050919050565b6000602082019050611ec860008301846117c1565b92915050565b60006020820190508181036000830152611ee881846117d0565b905092915050565b6000602082019050611f056000830184611845565b92915050565b60006020820190508181036000830152611f25818461188d565b905092915050565b60006020820190508181036000830152611f4681611937565b9050919050565b60006020820190508181036000830152611f668161199d565b9050919050565b60006020820190508181036000830152611f8681611a03565b9050919050565b60006020820190508181036000830152611fa681611a69565b9050919050565b60006020820190508181036000830152611fc681611b0f565b9050919050565b60006020820190508181036000830152611fe681611bb5565b9050919050565b6000602082019050818103600083015261200681611c1b565b9050919050565b6000602082019050818103600083015261202681611c5b565b9050919050565b6000602082019050818103600083015261204681611cc1565b9050919050565b6000602082019050818103600083015261206681611d01565b9050919050565b6000602082019050818103600083015261208681611d67565b9050919050565b60006020820190506120a26000830184611e3f565b92915050565b60006060820190506120bd6000830186611e3f565b81810360208301526120cf818561188d565b90506120de6040830184611e3f565b949350505050565b60006020820190506120fb6000830184611e4e565b92915050565b6000604051905081810181811067ffffffffffffffff8211171561212857612127612350565b5b8060405250919050565b600067ffffffffffffffff82111561214d5761214c612350565b5b601f19601f8301169050602081019050919050565b6000819050602082019050919050565b600081519050919050565b600081519050919050565b6000602082019050919050565b600082825260208201905092915050565b600082825260208201905092915050565b600082825260208201905092915050565b600081905092915050565b60006121de82612267565b91506121e983612267565b9250827fffffffffffffffffffffffffffffffffffffffffffffffffffffffffffffffff0382111561221e5761221d6122f2565b5b828201905092915050565b600061223482612247565b9050919050565b60008115159050919050565b600073ffffffffffffffffffffffffffffffffffffffff82169050919050565b6000819050919050565b600060ff82169050919050565b82818337600083830152505050565b60005b838110156122ab578082015181840152602081019050612290565b838111156122ba576000848401525b50505050565b600060028204905060018216806122d857607f821691505b602082108114156122ec576122eb612321565b5b50919050565b7f4e487b7100000000000000000000000000000000000000000000000000000000600052601160045260246000fd5b7f4e487b7100000000000000000000000000000000000000000000000000000000600052602260045260246000fd5b7f4e487b7100000000000000000000000000000000000000000000000000000000600052604160045260246000fd5b6000601f19601f8301169050919050565b61239981612229565b81146123a457600080fd5b50565b6123b081612267565b81146123bb57600080fd5b5056fea264697066735822122067241c9502f56be3f97acd49d699bbf66b863f4c5a2554eb1fa06da42d8d36bd64736f6c63430008000033",
  "immutableReferences": {},
  "source": "// // // SPDX-License-Identifier: MIT\r\n\r\n// pragma solidity ^0.8.0;\r\n\r\n// import \"@openzeppelin/contracts/token/ERC20/ERC20.sol\";\r\n// import \"@openzeppelin/contracts/access/Ownable.sol\";\r\n\r\n// contract DonationTracker is ERC20, Ownable {\r\n//     // Struct to represent a donation\r\n//     struct Donation {\r\n//         address donor;\r\n//         uint256 amount;\r\n//         string category;\r\n//         uint256 timestamp;\r\n//     }\r\n\r\n//     // Mapping to store donations by category and by donor\r\n//     mapping(string => Donation[]) private donationsByCategory;\r\n//     mapping(address => Donation[]) private donationsByDonor;\r\n\r\n//     // Addresses for each donation category\r\n//     address payable private healthcareAccount =\r\n//         payable(0x6132b99815E22D9de3F6Db075459631e6664a94A);\r\n//     address payable private educationAccount =\r\n//         payable(0x6AFC290339E04027BBe5477EEA0708A8cd678C98);\r\n//     address payable private lifestyleAccount =\r\n//         payable(0x967127f5b529bA503dF631Fd995bECa94789F2eb);\r\n\r\n//     // Events for transparency\r\n//     event DonationMade(\r\n//         address indexed donor,\r\n//         uint256 amount,\r\n//         string category,\r\n//         uint256 timestamp\r\n//     );\r\n\r\n//     constructor() ERC20(\"DonationToken\", \"DTK\") {\r\n//         _mint(msg.sender, 1000 * 10 ** decimals()); // Mint initial supply to the deployer\r\n//     }\r\n\r\n//     // Function to donate to a specific category\r\n//     function donate(string memory category) public payable {\r\n//         require(msg.value > 0, \"Donation must be greater than zero\");\r\n\r\n//         // Transfer Ether to the respective account based on the category\r\n//         if (\r\n//             keccak256(abi.encodePacked(category)) ==\r\n//             keccak256(abi.encodePacked(\"healthcare\"))\r\n//         ) {\r\n//             healthcareAccount.transfer(msg.value);\r\n//         } else if (\r\n//             keccak256(abi.encodePacked(category)) ==\r\n//             keccak256(abi.encodePacked(\"education\"))\r\n//         ) {\r\n//             educationAccount.transfer(msg.value);\r\n//         } else if (\r\n//             keccak256(abi.encodePacked(category)) ==\r\n//             keccak256(abi.encodePacked(\"lifestyle\"))\r\n//         ) {\r\n//             lifestyleAccount.transfer(msg.value);\r\n//         } else {\r\n//             revert(\"Invalid category\");\r\n//         }\r\n\r\n//         // Record the donation\r\n//         donationsByCategory[category].push(\r\n//             Donation(msg.sender, msg.value, category, block.timestamp)\r\n//         );\r\n//         donationsByDonor[msg.sender].push(\r\n//             Donation(msg.sender, msg.value, category, block.timestamp)\r\n//         );\r\n\r\n//         // Emit the event\r\n//         emit DonationMade(msg.sender, msg.value, category, block.timestamp);\r\n//     }\r\n\r\n//     // Function to get donations by category\r\n//     function getDonationsByCategory(\r\n//         string memory category\r\n//     ) public view returns (Donation[] memory) {\r\n//         return donationsByCategory[category];\r\n//     }\r\n\r\n//     // Function to get donations by donor\r\n//     function getDonationsByDonor(\r\n//         address donor\r\n//     ) public view returns (Donation[] memory) {\r\n//         return donationsByDonor[donor];\r\n//     }\r\n// }\r\n\r\npragma solidity ^0.8.0;\r\n\r\nimport \"@openzeppelin/contracts/token/ERC20/ERC20.sol\";\r\nimport \"@openzeppelin/contracts/access/Ownable.sol\";\r\n\r\ncontract DonationTracker is ERC20, Ownable {\r\n    // Struct to represent a donation\r\n    struct Donation {\r\n        address donor;\r\n        uint256 amount;\r\n        string category;\r\n        uint256 timestamp;\r\n    }\r\n\r\n    // Mapping to store donations by category\r\n    mapping(string => Donation[]) private donationsByCategory;\r\n\r\n    // Addresses for each donation category\r\n    address payable private healthcareAccount =\r\n        payable(0x6132b99815E22D9de3F6Db075459631e6664a94A);\r\n    address payable private educationAccount =\r\n        payable(0x6AFC290339E04027BBe5477EEA0708A8cd678C98);\r\n    address payable private lifestyleAccount =\r\n        payable(0x967127f5b529bA503dF631Fd995bECa94789F2eb);\r\n\r\n    // Events for transparency\r\n    event DonationMade(\r\n        address indexed donor,\r\n        uint256 amount,\r\n        string category,\r\n        uint256 timestamp\r\n    );\r\n\r\n    constructor() ERC20(\"DonationToken\", \"DTK\") {\r\n        _mint(msg.sender, 1000 * 10 ** decimals()); // Mint initial supply to the deployer\r\n    }\r\n\r\n    // Function to donate to a specific category\r\n    function donate(string memory category) public payable {\r\n        require(msg.value > 0, \"Donation must be greater than zero\");\r\n\r\n        // Transfer Ether to the respective account based on the category\r\n        if (\r\n            keccak256(abi.encodePacked(category)) ==\r\n            keccak256(abi.encodePacked(\"healthcare\"))\r\n        ) {\r\n            healthcareAccount.transfer(msg.value);\r\n        } else if (\r\n            keccak256(abi.encodePacked(category)) ==\r\n            keccak256(abi.encodePacked(\"education\"))\r\n        ) {\r\n            educationAccount.transfer(msg.value);\r\n        } else if (\r\n            keccak256(abi.encodePacked(category)) ==\r\n            keccak256(abi.encodePacked(\"lifestyle\"))\r\n        ) {\r\n            lifestyleAccount.transfer(msg.value);\r\n        } else {\r\n            revert(\"Invalid category\");\r\n        }\r\n\r\n        // Record the donation\r\n        donationsByCategory[category].push(\r\n            Donation(msg.sender, msg.value, category, block.timestamp)\r\n        );\r\n\r\n        // Emit the event\r\n        emit DonationMade(msg.sender, msg.value, category, block.timestamp);\r\n    }\r\n\r\n    // Function to get donations by category\r\n    function getDonationsByCategory(\r\n        string memory category\r\n    ) public view returns (Donation[] memory) {\r\n        return donationsByCategory[category];\r\n    }\r\n}\r\n",
  "sourcePath": "C:\\Users\\Fatima Humayun\\Desktop\\Blockchain-donation-tracker-app\\contracts\\MyDonationToken.sol",
  "compiler": {
    "name": "solc",
    "version": "0.8.0+commit.c7dfd78e.Emscripten.clang"
  },
  "schemaVersion": "3.4.16",
  "updatedAt": "2024-10-03T12:43:42.929Z",
  "networkType": "ethereum",
  "devdoc": {
    "kind": "dev",
    "methods": {
      "allowance(address,address)": {
        "details": "See {IERC20-allowance}."
      },
      "approve(address,uint256)": {
        "details": "See {IERC20-approve}. Requirements: - `spender` cannot be the zero address."
      },
      "balanceOf(address)": {
        "details": "See {IERC20-balanceOf}."
      },
      "decimals()": {
        "details": "Returns the number of decimals used to get its user representation. For example, if `decimals` equals `2`, a balance of `505` tokens should be displayed to a user as `5.05` (`505 / 10 ** 2`). Tokens usually opt for a value of 18, imitating the relationship between Ether and Wei. This is the value {ERC20} uses, unless this function is overridden; NOTE: This information is only used for _display_ purposes: it in no way affects any of the arithmetic of the contract, including {IERC20-balanceOf} and {IERC20-transfer}."
      },
      "decreaseAllowance(address,uint256)": {
        "details": "Atomically decreases the allowance granted to `spender` by the caller. This is an alternative to {approve} that can be used as a mitigation for problems described in {IERC20-approve}. Emits an {Approval} event indicating the updated allowance. Requirements: - `spender` cannot be the zero address. - `spender` must have allowance for the caller of at least `subtractedValue`."
      },
      "increaseAllowance(address,uint256)": {
        "details": "Atomically increases the allowance granted to `spender` by the caller. This is an alternative to {approve} that can be used as a mitigation for problems described in {IERC20-approve}. Emits an {Approval} event indicating the updated allowance. Requirements: - `spender` cannot be the zero address."
      },
      "name()": {
        "details": "Returns the name of the token."
      },
      "owner()": {
        "details": "Returns the address of the current owner."
      },
      "renounceOwnership()": {
        "details": "Leaves the contract without owner. It will not be possible to call `onlyOwner` functions anymore. Can only be called by the current owner. NOTE: Renouncing ownership will leave the contract without an owner, thereby removing any functionality that is only available to the owner."
      },
      "symbol()": {
        "details": "Returns the symbol of the token, usually a shorter version of the name."
      },
      "totalSupply()": {
        "details": "See {IERC20-totalSupply}."
      },
      "transfer(address,uint256)": {
        "details": "See {IERC20-transfer}. Requirements: - `recipient` cannot be the zero address. - the caller must have a balance of at least `amount`."
      },
      "transferFrom(address,address,uint256)": {
        "details": "See {IERC20-transferFrom}. Emits an {Approval} event indicating the updated allowance. This is not required by the EIP. See the note at the beginning of {ERC20}. Requirements: - `sender` and `recipient` cannot be the zero address. - `sender` must have a balance of at least `amount`. - the caller must have allowance for ``sender``'s tokens of at least `amount`."
      },
      "transferOwnership(address)": {
        "details": "Transfers ownership of the contract to a new account (`newOwner`). Can only be called by the current owner."
      }
    },
    "version": 1
  },
  "userdoc": {
    "kind": "user",
    "methods": {},
    "version": 1
  }
}