{
  "contractName": "DonationTracker",
  "abi": [
    {
      "inputs": [],
      "stateMutability": "nonpayable",
      "type": "constructor"
    },
    {
      "anonymous": false,
      "inputs": [
        {
          "indexed": true,
          "internalType": "address",
          "name": "owner",
          "type": "address"
        },
        {
          "indexed": true,
          "internalType": "address",
          "name": "spender",
          "type": "address"
        },
        {
          "indexed": false,
          "internalType": "uint256",
          "name": "value",
          "type": "uint256"
        }
      ],
      "name": "Approval",
      "type": "event"
    },
    {
      "anonymous": false,
      "inputs": [
        {
          "indexed": true,
          "internalType": "address",
          "name": "donor",
          "type": "address"
        },
        {
          "indexed": false,
          "internalType": "uint256",
          "name": "amount",
          "type": "uint256"
        },
        {
          "indexed": false,
          "internalType": "string",
          "name": "category",
          "type": "string"
        },
        {
          "indexed": false,
          "internalType": "uint256",
          "name": "timestamp",
          "type": "uint256"
        }
      ],
      "name": "DonationMade",
      "type": "event"
    },
    {
      "anonymous": false,
      "inputs": [
        {
          "indexed": true,
          "internalType": "address",
          "name": "previousOwner",
          "type": "address"
        },
        {
          "indexed": true,
          "internalType": "address",
          "name": "newOwner",
          "type": "address"
        }
      ],
      "name": "OwnershipTransferred",
      "type": "event"
    },
    {
      "anonymous": false,
      "inputs": [
        {
          "indexed": true,
          "internalType": "address",
          "name": "from",
          "type": "address"
        },
        {
          "indexed": true,
          "internalType": "address",
          "name": "to",
          "type": "address"
        },
        {
          "indexed": false,
          "internalType": "uint256",
          "name": "value",
          "type": "uint256"
        }
      ],
      "name": "Transfer",
      "type": "event"
    },
    {
      "inputs": [
        {
          "internalType": "address",
          "name": "owner",
          "type": "address"
        },
        {
          "internalType": "address",
          "name": "spender",
          "type": "address"
        }
      ],
      "name": "allowance",
      "outputs": [
        {
          "internalType": "uint256",
          "name": "",
          "type": "uint256"
        }
      ],
      "stateMutability": "view",
      "type": "function",
      "constant": true
    },
    {
      "inputs": [
        {
          "internalType": "address",
          "name": "spender",
          "type": "address"
        },
        {
          "internalType": "uint256",
          "name": "amount",
          "type": "uint256"
        }
      ],
      "name": "approve",
      "outputs": [
        {
          "internalType": "bool",
          "name": "",
          "type": "bool"
        }
      ],
      "stateMutability": "nonpayable",
      "type": "function"
    },
    {
      "inputs": [
        {
          "internalType": "address",
          "name": "account",
          "type": "address"
        }
      ],
      "name": "balanceOf",
      "outputs": [
        {
          "internalType": "uint256",
          "name": "",
          "type": "uint256"
        }
      ],
      "stateMutability": "view",
      "type": "function",
      "constant": true
    },
    {
      "inputs": [],
      "name": "decimals",
      "outputs": [
        {
          "internalType": "uint8",
          "name": "",
          "type": "uint8"
        }
      ],
      "stateMutability": "view",
      "type": "function",
      "constant": true
    },
    {
      "inputs": [
        {
          "internalType": "address",
          "name": "spender",
          "type": "address"
        },
        {
          "internalType": "uint256",
          "name": "subtractedValue",
          "type": "uint256"
        }
      ],
      "name": "decreaseAllowance",
      "outputs": [
        {
          "internalType": "bool",
          "name": "",
          "type": "bool"
        }
      ],
      "stateMutability": "nonpayable",
      "type": "function"
    },
    {
      "inputs": [
        {
          "internalType": "address",
          "name": "spender",
          "type": "address"
        },
        {
          "internalType": "uint256",
          "name": "addedValue",
          "type": "uint256"
        }
      ],
      "name": "increaseAllowance",
      "outputs": [
        {
          "internalType": "bool",
          "name": "",
          "type": "bool"
        }
      ],
      "stateMutability": "nonpayable",
      "type": "function"
    },
    {
      "inputs": [],
      "name": "name",
      "outputs": [
        {
          "internalType": "string",
          "name": "",
          "type": "string"
        }
      ],
      "stateMutability": "view",
      "type": "function",
      "constant": true
    },
    {
      "inputs": [],
      "name": "owner",
      "outputs": [
        {
          "internalType": "address",
          "name": "",
          "type": "address"
        }
      ],
      "stateMutability": "view",
      "type": "function",
      "constant": true
    },
    {
      "inputs": [],
      "name": "renounceOwnership",
      "outputs": [],
      "stateMutability": "nonpayable",
      "type": "function"
    },
    {
      "inputs": [],
      "name": "symbol",
      "outputs": [
        {
          "internalType": "string",
          "name": "",
          "type": "string"
        }
      ],
      "stateMutability": "view",
      "type": "function",
      "constant": true
    },
    {
      "inputs": [],
      "name": "totalSupply",
      "outputs": [
        {
          "internalType": "uint256",
          "name": "",
          "type": "uint256"
        }
      ],
      "stateMutability": "view",
      "type": "function",
      "constant": true
    },
    {
      "inputs": [
        {
          "internalType": "address",
          "name": "recipient",
          "type": "address"
        },
        {
          "internalType": "uint256",
          "name": "amount",
          "type": "uint256"
        }
      ],
      "name": "transfer",
      "outputs": [
        {
          "internalType": "bool",
          "name": "",
          "type": "bool"
        }
      ],
      "stateMutability": "nonpayable",
      "type": "function"
    },
    {
      "inputs": [
        {
          "internalType": "address",
          "name": "sender",
          "type": "address"
        },
        {
          "internalType": "address",
          "name": "recipient",
          "type": "address"
        },
        {
          "internalType": "uint256",
          "name": "amount",
          "type": "uint256"
        }
      ],
      "name": "transferFrom",
      "outputs": [
        {
          "internalType": "bool",
          "name": "",
          "type": "bool"
        }
      ],
      "stateMutability": "nonpayable",
      "type": "function"
    },
    {
      "inputs": [
        {
          "internalType": "address",
          "name": "newOwner",
          "type": "address"
        }
      ],
      "name": "transferOwnership",
      "outputs": [],
      "stateMutability": "nonpayable",
      "type": "function"
    },
    {
      "inputs": [
        {
          "internalType": "string",
          "name": "category",
          "type": "string"
        }
      ],
      "name": "donate",
      "outputs": [],
      "stateMutability": "payable",
      "type": "function",
      "payable": true
    },
    {
      "inputs": [
        {
          "internalType": "string",
          "name": "category",
          "type": "string"
        }
      ],
      "name": "getDonationsByCategory",
      "outputs": [
        {
          "components": [
            {
              "internalType": "address",
              "name": "donor",
              "type": "address"
            },
            {
              "internalType": "uint256",
              "name": "amount",
              "type": "uint256"
            },
            {
              "internalType": "string",
              "name": "category",
              "type": "string"
            },
            {
              "internalType": "uint256",
              "name": "timestamp",
              "type": "uint256"
            }
          ],
          "internalType": "struct DonationTracker.Donation[]",
          "name": "",
          "type": "tuple[]"
        }
      ],
      "stateMutability": "view",
      "type": "function",
      "constant": true
    },
    {
      "inputs": [
        {
          "internalType": "address",
          "name": "donor",
          "type": "address"
        }
      ],
      "name": "getDonationsByDonor",
      "outputs": [
        {
          "components": [
            {
              "internalType": "address",
              "name": "donor",
              "type": "address"
            },
            {
              "internalType": "uint256",
              "name": "amount",
              "type": "uint256"
            },
            {
              "internalType": "string",
              "name": "category",
              "type": "string"
            },
            {
              "internalType": "uint256",
              "name": "timestamp",
              "type": "uint256"
            }
          ],
          "internalType": "struct DonationTracker.Donation[]",
          "name": "",
          "type": "tuple[]"
        }
      ],
      "stateMutability": "view",
      "type": "function",
      "constant": true
    }
  ],
  "bytecode": "0x6080604052736132b99815e22d9de3f6db075459631e6664a94a600860006101000a81548173ffffffffffffffffffffffffffffffffffffffff021916908373ffffffffffffffffffffffffffffffffffffffff160217905550736afc290339e04027bbe5477eea0708a8cd678c98600960006101000a81548173ffffffffffffffffffffffffffffffffffffffff021916908373ffffffffffffffffffffffffffffffffffffffff16021790555073967127f5b529ba503df631fd995beca94789f2eb600a60006101000a81548173ffffffffffffffffffffffffffffffffffffffff021916908373ffffffffffffffffffffffffffffffffffffffff1602179055503480156200011057600080fd5b506040518060400160405280600d81526020017f446f6e6174696f6e546f6b656e000000000000000000000000000000000000008152506040518060400160405280600381526020017f44544b00000000000000000000000000000000000000000000000000000000008152508160039080519060200190620001959291906200046f565b508060049080519060200190620001ae9291906200046f565b505050620001d1620001c56200021560201b60201c565b6200021d60201b60201c565b6200020f33620001e6620002e360201b60201c565b600a620001f491906200067a565b6103e8620002039190620007b7565b620002ec60201b60201c565b620008d0565b600033905090565b6000600560009054906101000a900473ffffffffffffffffffffffffffffffffffffffff16905081600560006101000a81548173ffffffffffffffffffffffffffffffffffffffff021916908373ffffffffffffffffffffffffffffffffffffffff1602179055508173ffffffffffffffffffffffffffffffffffffffff168173ffffffffffffffffffffffffffffffffffffffff167f8be0079c531659141344cd1fd0a4f28419497f9722a3daafe3b4186f6b6457e060405160405180910390a35050565b60006012905090565b600073ffffffffffffffffffffffffffffffffffffffff168273ffffffffffffffffffffffffffffffffffffffff1614156200035f576040517f08c379a0000000000000000000000000000000000000000000000000000000008152600401620003569062000572565b60405180910390fd5b62000373600083836200046560201b60201c565b8060026000828254620003879190620005c2565b92505081905550806000808473ffffffffffffffffffffffffffffffffffffffff1673ffffffffffffffffffffffffffffffffffffffff1681526020019081526020016000206000828254620003de9190620005c2565b925050819055508173ffffffffffffffffffffffffffffffffffffffff16600073ffffffffffffffffffffffffffffffffffffffff167fddf252ad1be2c89b69c2b068fc378daa952ba7f163c4a11628f55a4df523b3ef8360405162000445919062000594565b60405180910390a362000461600083836200046a60201b60201c565b5050565b505050565b505050565b8280546200047d906200082f565b90600052602060002090601f016020900481019282620004a15760008555620004ed565b82601f10620004bc57805160ff1916838001178555620004ed565b82800160010185558215620004ed579182015b82811115620004ec578251825591602001919060010190620004cf565b5b509050620004fc919062000500565b5090565b5b808211156200051b57600081600090555060010162000501565b5090565b60006200052e601f83620005b1565b91507f45524332303a206d696e7420746f20746865207a65726f2061646472657373006000830152602082019050919050565b6200056c8162000818565b82525050565b600060208201905081810360008301526200058d816200051f565b9050919050565b6000602082019050620005ab600083018462000561565b92915050565b600082825260208201905092915050565b6000620005cf8262000818565b9150620005dc8362000818565b9250827fffffffffffffffffffffffffffffffffffffffffffffffffffffffffffffffff0382111562000614576200061362000865565b5b828201905092915050565b6000808291508390505b6001851115620006715780860481111562000649576200064862000865565b5b6001851615620006595780820291505b80810290506200066985620008c3565b945062000629565b94509492505050565b6000620006878262000818565b9150620006948362000822565b9250620006c37fffffffffffffffffffffffffffffffffffffffffffffffffffffffffffffffff8484620006cb565b905092915050565b600082620006dd5760019050620007b0565b81620006ed5760009050620007b0565b8160018114620007065760028114620007115762000747565b6001915050620007b0565b60ff84111562000726576200072562000865565b5b8360020a91508482111562000740576200073f62000865565b5b50620007b0565b5060208310610133831016604e8410600b8410161715620007815782820a9050838111156200077b576200077a62000865565b5b620007b0565b6200079084848460016200061f565b92509050818404811115620007aa57620007a962000865565b5b81810290505b9392505050565b6000620007c48262000818565b9150620007d18362000818565b9250817fffffffffffffffffffffffffffffffffffffffffffffffffffffffffffffffff04831182151516156200080d576200080c62000865565b5b828202905092915050565b6000819050919050565b600060ff82169050919050565b600060028204905060018216806200084857607f821691505b602082108114156200085f576200085e62000894565b5b50919050565b7f4e487b7100000000000000000000000000000000000000000000000000000000600052601160045260246000fd5b7f4e487b7100000000000000000000000000000000000000000000000000000000600052602260045260246000fd5b60008160011c9050919050565b6126ef80620008e06000396000f3fe6080604052600436106100fe5760003560e01c806370a0823111610095578063a457c2d711610064578063a457c2d71461035f578063a9059cbb1461039c578063b5aebc80146103d9578063dd62ed3e146103f5578063f2fde38b14610432576100fe565b806370a08231146102b5578063715018a6146102f25780638da5cb5b1461030957806395d89b4114610334576100fe565b8063313ce567116100d1578063313ce567146101d357806339509351146101fe5780633d0d30861461023b5780634e17d2d314610278576100fe565b806306fdde0314610103578063095ea7b31461012e57806318160ddd1461016b57806323b872dd14610196575b600080fd5b34801561010f57600080fd5b5061011861045b565b6040516101259190612206565b60405180910390f35b34801561013a57600080fd5b5061015560048036038101906101509190611a1c565b6104ed565b60405161016291906121eb565b60405180910390f35b34801561017757600080fd5b5061018061050b565b60405161018d9190612388565b60405180910390f35b3480156101a257600080fd5b506101bd60048036038101906101b891906119cd565b610515565b6040516101ca91906121eb565b60405180910390f35b3480156101df57600080fd5b506101e861060d565b6040516101f591906123e1565b60405180910390f35b34801561020a57600080fd5b5061022560048036038101906102209190611a1c565b610616565b60405161023291906121eb565b60405180910390f35b34801561024757600080fd5b50610262600480360381019061025d9190611968565b6106c2565b60405161026f91906121c9565b60405180910390f35b34801561028457600080fd5b5061029f600480360381019061029a9190611a58565b61085c565b6040516102ac91906121c9565b60405180910390f35b3480156102c157600080fd5b506102dc60048036038101906102d79190611968565b6109d5565b6040516102e99190612388565b60405180910390f35b3480156102fe57600080fd5b50610307610a1d565b005b34801561031557600080fd5b5061031e610aa5565b60405161032b91906121ae565b60405180910390f35b34801561034057600080fd5b50610349610acf565b6040516103569190612206565b60405180910390f35b34801561036b57600080fd5b5061038660048036038101906103819190611a1c565b610b61565b60405161039391906121eb565b60405180910390f35b3480156103a857600080fd5b506103c360048036038101906103be9190611a1c565b610c4c565b6040516103d091906121eb565b60405180910390f35b6103f360048036038101906103ee9190611a58565b610c6a565b005b34801561040157600080fd5b5061041c60048036038101906104179190611991565b611190565b6040516104299190612388565b60405180910390f35b34801561043e57600080fd5b5061045960048036038101906104549190611968565b611217565b005b60606003805461046a906125bb565b80601f0160208091040260200160405190810160405280929190818152602001828054610496906125bb565b80156104e35780601f106104b8576101008083540402835291602001916104e3565b820191906000526020600020905b8154815290600101906020018083116104c657829003601f168201915b5050505050905090565b60006105016104fa61130f565b8484611317565b6001905092915050565b6000600254905090565b60006105228484846114e2565b6000600160008673ffffffffffffffffffffffffffffffffffffffff1673ffffffffffffffffffffffffffffffffffffffff168152602001908152602001600020600061056d61130f565b73ffffffffffffffffffffffffffffffffffffffff1673ffffffffffffffffffffffffffffffffffffffff168152602001908152602001600020549050828110156105ed576040517f08c379a00000000000000000000000000000000000000000000000000000000081526004016105e4906122c8565b60405180910390fd5b610601856105f961130f565b858403611317565b60019150509392505050565b60006012905090565b60006106b861062361130f565b84846001600061063161130f565b73ffffffffffffffffffffffffffffffffffffffff1673ffffffffffffffffffffffffffffffffffffffff16815260200190815260200160002060008873ffffffffffffffffffffffffffffffffffffffff1673ffffffffffffffffffffffffffffffffffffffff168152602001908152602001600020546106b391906124ce565b611317565b6001905092915050565b6060600760008373ffffffffffffffffffffffffffffffffffffffff1673ffffffffffffffffffffffffffffffffffffffff168152602001908152602001600020805480602002602001604051908101604052809291908181526020016000905b8282101561085157838290600052602060002090600402016040518060800160405290816000820160009054906101000a900473ffffffffffffffffffffffffffffffffffffffff1673ffffffffffffffffffffffffffffffffffffffff1673ffffffffffffffffffffffffffffffffffffffff168152602001600182015481526020016002820180546107b6906125bb565b80601f01602080910402602001604051908101604052809291908181526020018280546107e2906125bb565b801561082f5780601f106108045761010080835404028352916020019161082f565b820191906000526020600020905b81548152906001019060200180831161081257829003601f168201915b5050505050815260200160038201548152505081526020019060010190610723565b505050509050919050565b606060068260405161086e9190612158565b9081526020016040518091039020805480602002602001604051908101604052809291908181526020016000905b828210156109ca57838290600052602060002090600402016040518060800160405290816000820160009054906101000a900473ffffffffffffffffffffffffffffffffffffffff1673ffffffffffffffffffffffffffffffffffffffff1673ffffffffffffffffffffffffffffffffffffffff1681526020016001820154815260200160028201805461092f906125bb565b80601f016020809104026020016040519081016040528092919081815260200182805461095b906125bb565b80156109a85780601f1061097d576101008083540402835291602001916109a8565b820191906000526020600020905b81548152906001019060200180831161098b57829003601f168201915b505050505081526020016003820154815250508152602001906001019061089c565b505050509050919050565b60008060008373ffffffffffffffffffffffffffffffffffffffff1673ffffffffffffffffffffffffffffffffffffffff168152602001908152602001600020549050919050565b610a2561130f565b73ffffffffffffffffffffffffffffffffffffffff16610a43610aa5565b73ffffffffffffffffffffffffffffffffffffffff1614610a99576040517f08c379a0000000000000000000000000000000000000000000000000000000008152600401610a90906122e8565b60405180910390fd5b610aa36000611763565b565b6000600560009054906101000a900473ffffffffffffffffffffffffffffffffffffffff16905090565b606060048054610ade906125bb565b80601f0160208091040260200160405190810160405280929190818152602001828054610b0a906125bb565b8015610b575780601f10610b2c57610100808354040283529160200191610b57565b820191906000526020600020905b815481529060010190602001808311610b3a57829003601f168201915b5050505050905090565b60008060016000610b7061130f565b73ffffffffffffffffffffffffffffffffffffffff1673ffffffffffffffffffffffffffffffffffffffff16815260200190815260200160002060008573ffffffffffffffffffffffffffffffffffffffff1673ffffffffffffffffffffffffffffffffffffffff16815260200190815260200160002054905082811015610c2d576040517f08c379a0000000000000000000000000000000000000000000000000000000008152600401610c2490612368565b60405180910390fd5b610c41610c3861130f565b85858403611317565b600191505092915050565b6000610c60610c5961130f565b84846114e2565b6001905092915050565b60003411610cad576040517f08c379a0000000000000000000000000000000000000000000000000000000008152600401610ca490612248565b60405180910390fd5b604051602001610cbc90612184565b6040516020818303038152906040528051906020012081604051602001610ce39190612158565b604051602081830303815290604052805190602001201415610d6d57600860009054906101000a900473ffffffffffffffffffffffffffffffffffffffff1673ffffffffffffffffffffffffffffffffffffffff166108fc349081150290604051600060405180830381858888f19350505050158015610d67573d6000803e3d6000fd5b50610f2a565b604051602001610d7c9061216f565b6040516020818303038152906040528051906020012081604051602001610da39190612158565b604051602081830303815290604052805190602001201415610e2d57600960009054906101000a900473ffffffffffffffffffffffffffffffffffffffff1673ffffffffffffffffffffffffffffffffffffffff166108fc349081150290604051600060405180830381858888f19350505050158015610e27573d6000803e3d6000fd5b50610f29565b604051602001610e3c90612199565b6040516020818303038152906040528051906020012081604051602001610e639190612158565b604051602081830303815290604052805190602001201415610eed57600a60009054906101000a900473ffffffffffffffffffffffffffffffffffffffff1673ffffffffffffffffffffffffffffffffffffffff166108fc349081150290604051600060405180830381858888f19350505050158015610ee7573d6000803e3d6000fd5b50610f28565b6040517f08c379a0000000000000000000000000000000000000000000000000000000008152600401610f1f90612328565b60405180910390fd5b5b5b600681604051610f3a9190612158565b908152602001604051809103902060405180608001604052803373ffffffffffffffffffffffffffffffffffffffff16815260200134815260200183815260200142815250908060018154018082558091505060019003906000526020600020906004020160009091909190915060008201518160000160006101000a81548173ffffffffffffffffffffffffffffffffffffffff021916908373ffffffffffffffffffffffffffffffffffffffff160217905550602082015181600101556040820151816002019080519060200190611015929190611833565b50606082015181600301555050600760003373ffffffffffffffffffffffffffffffffffffffff1673ffffffffffffffffffffffffffffffffffffffff16815260200190815260200160002060405180608001604052803373ffffffffffffffffffffffffffffffffffffffff16815260200134815260200183815260200142815250908060018154018082558091505060019003906000526020600020906004020160009091909190915060008201518160000160006101000a81548173ffffffffffffffffffffffffffffffffffffffff021916908373ffffffffffffffffffffffffffffffffffffffff16021790555060208201518160010155604082015181600201908051906020019061112e929190611833565b506060820151816003015550503373ffffffffffffffffffffffffffffffffffffffff167f8580ecae95ac2e0205deed43d40b277d8d0329bbd0adeb855e64c9e88737340f348342604051611185939291906123a3565b60405180910390a250565b6000600160008473ffffffffffffffffffffffffffffffffffffffff1673ffffffffffffffffffffffffffffffffffffffff16815260200190815260200160002060008373ffffffffffffffffffffffffffffffffffffffff1673ffffffffffffffffffffffffffffffffffffffff16815260200190815260200160002054905092915050565b61121f61130f565b73ffffffffffffffffffffffffffffffffffffffff1661123d610aa5565b73ffffffffffffffffffffffffffffffffffffffff1614611293576040517f08c379a000000000000000000000000000000000000000000000000000000000815260040161128a906122e8565b60405180910390fd5b600073ffffffffffffffffffffffffffffffffffffffff168173ffffffffffffffffffffffffffffffffffffffff161415611303576040517f08c379a00000000000000000000000000000000000000000000000000000000081526004016112fa90612268565b60405180910390fd5b61130c81611763565b50565b600033905090565b600073ffffffffffffffffffffffffffffffffffffffff168373ffffffffffffffffffffffffffffffffffffffff161415611387576040517f08c379a000000000000000000000000000000000000000000000000000000000815260040161137e90612348565b60405180910390fd5b600073ffffffffffffffffffffffffffffffffffffffff168273ffffffffffffffffffffffffffffffffffffffff1614156113f7576040517f08c379a00000000000000000000000000000000000000000000000000000000081526004016113ee90612288565b60405180910390fd5b80600160008573ffffffffffffffffffffffffffffffffffffffff1673ffffffffffffffffffffffffffffffffffffffff16815260200190815260200160002060008473ffffffffffffffffffffffffffffffffffffffff1673ffffffffffffffffffffffffffffffffffffffff168152602001908152602001600020819055508173ffffffffffffffffffffffffffffffffffffffff168373ffffffffffffffffffffffffffffffffffffffff167f8c5be1e5ebec7d5bd14f71427d1e84f3dd0314c0f7b2291e5b200ac8c7c3b925836040516114d59190612388565b60405180910390a3505050565b600073ffffffffffffffffffffffffffffffffffffffff168373ffffffffffffffffffffffffffffffffffffffff161415611552576040517f08c379a000000000000000000000000000000000000000000000000000000000815260040161154990612308565b60405180910390fd5b600073ffffffffffffffffffffffffffffffffffffffff168273ffffffffffffffffffffffffffffffffffffffff1614156115c2576040517f08c379a00000000000000000000000000000000000000000000000000000000081526004016115b990612228565b60405180910390fd5b6115cd838383611829565b60008060008573ffffffffffffffffffffffffffffffffffffffff1673ffffffffffffffffffffffffffffffffffffffff16815260200190815260200160002054905081811015611653576040517f08c379a000000000000000000000000000000000000000000000000000000000815260040161164a906122a8565b60405180910390fd5b8181036000808673ffffffffffffffffffffffffffffffffffffffff1673ffffffffffffffffffffffffffffffffffffffff16815260200190815260200160002081905550816000808573ffffffffffffffffffffffffffffffffffffffff1673ffffffffffffffffffffffffffffffffffffffff16815260200190815260200160002060008282546116e691906124ce565b925050819055508273ffffffffffffffffffffffffffffffffffffffff168473ffffffffffffffffffffffffffffffffffffffff167fddf252ad1be2c89b69c2b068fc378daa952ba7f163c4a11628f55a4df523b3ef8460405161174a9190612388565b60405180910390a361175d84848461182e565b50505050565b6000600560009054906101000a900473ffffffffffffffffffffffffffffffffffffffff16905081600560006101000a81548173ffffffffffffffffffffffffffffffffffffffff021916908373ffffffffffffffffffffffffffffffffffffffff1602179055508173ffffffffffffffffffffffffffffffffffffffff168173ffffffffffffffffffffffffffffffffffffffff167f8be0079c531659141344cd1fd0a4f28419497f9722a3daafe3b4186f6b6457e060405160405180910390a35050565b505050565b505050565b82805461183f906125bb565b90600052602060002090601f01602090048101928261186157600085556118a8565b82601f1061187a57805160ff19168380011785556118a8565b828001600101855582156118a8579182015b828111156118a757825182559160200191906001019061188c565b5b5090506118b591906118b9565b5090565b5b808211156118d25760008160009055506001016118ba565b5090565b60006118e96118e48461242d565b6123fc565b90508281526020810184848401111561190157600080fd5b61190c848285612579565b509392505050565b6000813590506119238161268b565b92915050565b600082601f83011261193a57600080fd5b813561194a8482602086016118d6565b91505092915050565b600081359050611962816126a2565b92915050565b60006020828403121561197a57600080fd5b600061198884828501611914565b91505092915050565b600080604083850312156119a457600080fd5b60006119b285828601611914565b92505060206119c385828601611914565b9150509250929050565b6000806000606084860312156119e257600080fd5b60006119f086828701611914565b9350506020611a0186828701611914565b9250506040611a1286828701611953565b9150509250925092565b60008060408385031215611a2f57600080fd5b6000611a3d85828601611914565b9250506020611a4e85828601611953565b9150509250929050565b600060208284031215611a6a57600080fd5b600082013567ffffffffffffffff811115611a8457600080fd5b611a9084828501611929565b91505092915050565b6000611aa583836120c8565b905092915050565b611ab681612524565b82525050565b611ac581612524565b82525050565b6000611ad68261246d565b611ae08185612490565b935083602082028501611af28561245d565b8060005b85811015611b2e5784840389528151611b0f8582611a99565b9450611b1a83612483565b925060208a01995050600181019050611af6565b50829750879550505050505092915050565b611b4981612536565b82525050565b6000611b5a82612478565b611b6481856124a1565b9350611b74818560208601612588565b611b7d8161267a565b840191505092915050565b6000611b9382612478565b611b9d81856124b2565b9350611bad818560208601612588565b611bb68161267a565b840191505092915050565b6000611bcc82612478565b611bd681856124c3565b9350611be6818560208601612588565b80840191505092915050565b6000611bff6009836124c3565b91507f656475636174696f6e00000000000000000000000000000000000000000000006000830152600982019050919050565b6000611c3f6023836124b2565b91507f45524332303a207472616e7366657220746f20746865207a65726f206164647260008301527f65737300000000000000000000000000000000000000000000000000000000006020830152604082019050919050565b6000611ca56022836124b2565b91507f446f6e6174696f6e206d7573742062652067726561746572207468616e207a6560008301527f726f0000000000000000000000000000000000000000000000000000000000006020830152604082019050919050565b6000611d0b6026836124b2565b91507f4f776e61626c653a206e6577206f776e657220697320746865207a65726f206160008301527f64647265737300000000000000000000000000000000000000000000000000006020830152604082019050919050565b6000611d716022836124b2565b91507f45524332303a20617070726f766520746f20746865207a65726f20616464726560008301527f73730000000000000000000000000000000000000000000000000000000000006020830152604082019050919050565b6000611dd7600a836124c3565b91507f6865616c746863617265000000000000000000000000000000000000000000006000830152600a82019050919050565b6000611e176026836124b2565b91507f45524332303a207472616e7366657220616d6f756e742065786365656473206260008301527f616c616e636500000000000000000000000000000000000000000000000000006020830152604082019050919050565b6000611e7d6009836124c3565b91507f6c6966657374796c6500000000000000000000000000000000000000000000006000830152600982019050919050565b6000611ebd6028836124b2565b91507f45524332303a207472616e7366657220616d6f756e742065786365656473206160008301527f6c6c6f77616e63650000000000000000000000000000000000000000000000006020830152604082019050919050565b6000611f236020836124b2565b91507f4f776e61626c653a2063616c6c6572206973206e6f7420746865206f776e65726000830152602082019050919050565b6000611f636025836124b2565b91507f45524332303a207472616e736665722066726f6d20746865207a65726f20616460008301527f64726573730000000000000000000000000000000000000000000000000000006020830152604082019050919050565b6000611fc96010836124b2565b91507f496e76616c69642063617465676f7279000000000000000000000000000000006000830152602082019050919050565b60006120096024836124b2565b91507f45524332303a20617070726f76652066726f6d20746865207a65726f2061646460008301527f72657373000000000000000000000000000000000000000000000000000000006020830152604082019050919050565b600061206f6025836124b2565b91507f45524332303a2064656372656173656420616c6c6f77616e63652062656c6f7760008301527f207a65726f0000000000000000000000000000000000000000000000000000006020830152604082019050919050565b60006080830160008301516120e06000860182611aad565b5060208301516120f3602086018261212b565b506040830151848203604086015261210b8282611b4f565b9150506060830151612120606086018261212b565b508091505092915050565b61213481612562565b82525050565b61214381612562565b82525050565b6121528161256c565b82525050565b60006121648284611bc1565b915081905092915050565b600061217a82611bf2565b9150819050919050565b600061218f82611dca565b9150819050919050565b60006121a482611e70565b9150819050919050565b60006020820190506121c36000830184611abc565b92915050565b600060208201905081810360008301526121e38184611acb565b905092915050565b60006020820190506122006000830184611b40565b92915050565b600060208201905081810360008301526122208184611b88565b905092915050565b6000602082019050818103600083015261224181611c32565b9050919050565b6000602082019050818103600083015261226181611c98565b9050919050565b6000602082019050818103600083015261228181611cfe565b9050919050565b600060208201905081810360008301526122a181611d64565b9050919050565b600060208201905081810360008301526122c181611e0a565b9050919050565b600060208201905081810360008301526122e181611eb0565b9050919050565b6000602082019050818103600083015261230181611f16565b9050919050565b6000602082019050818103600083015261232181611f56565b9050919050565b6000602082019050818103600083015261234181611fbc565b9050919050565b6000602082019050818103600083015261236181611ffc565b9050919050565b6000602082019050818103600083015261238181612062565b9050919050565b600060208201905061239d600083018461213a565b92915050565b60006060820190506123b8600083018661213a565b81810360208301526123ca8185611b88565b90506123d9604083018461213a565b949350505050565b60006020820190506123f66000830184612149565b92915050565b6000604051905081810181811067ffffffffffffffff821117156124235761242261264b565b5b8060405250919050565b600067ffffffffffffffff8211156124485761244761264b565b5b601f19601f8301169050602081019050919050565b6000819050602082019050919050565b600081519050919050565b600081519050919050565b6000602082019050919050565b600082825260208201905092915050565b600082825260208201905092915050565b600082825260208201905092915050565b600081905092915050565b60006124d982612562565b91506124e483612562565b9250827fffffffffffffffffffffffffffffffffffffffffffffffffffffffffffffffff03821115612519576125186125ed565b5b828201905092915050565b600061252f82612542565b9050919050565b60008115159050919050565b600073ffffffffffffffffffffffffffffffffffffffff82169050919050565b6000819050919050565b600060ff82169050919050565b82818337600083830152505050565b60005b838110156125a657808201518184015260208101905061258b565b838111156125b5576000848401525b50505050565b600060028204905060018216806125d357607f821691505b602082108114156125e7576125e661261c565b5b50919050565b7f4e487b7100000000000000000000000000000000000000000000000000000000600052601160045260246000fd5b7f4e487b7100000000000000000000000000000000000000000000000000000000600052602260045260246000fd5b7f4e487b7100000000000000000000000000000000000000000000000000000000600052604160045260246000fd5b6000601f19601f8301169050919050565b61269481612524565b811461269f57600080fd5b50565b6126ab81612562565b81146126b657600080fd5b5056fea2646970667358221220d768fb1a147fdb3e511955f3c1ff74dbf33d66e634ba072f90747ab7619a191364736f6c63430008000033",
  "immutableReferences": {},
  "source": "// // SPDX-License-Identifier: MIT\r\n// pragma solidity ^0.8.0;\r\n\r\n// import \"@openzeppelin/contracts/access/Ownable.sol\";\r\n\r\n// contract DonationTracker is Ownable {\r\n//     // Struct to represent a donation\r\n//     struct Donation {\r\n//         address donor;\r\n//         uint256 amount;\r\n//         string category;\r\n//         uint256 timestamp;\r\n//     }\r\n\r\n//     // Mapping to store donations by category and by donor\r\n//     mapping(string => Donation[]) private donationsByCategory;\r\n//     mapping(address => Donation[]) private donationsByDonor;\r\n\r\n//     // Addresses for each donation category\r\n//     address payable private healthcareAccount =\r\n//         payable(0x6132b99815E22D9de3F6Db075459631e6664a94A);\r\n//     address payable private educationAccount =\r\n//         payable(0x6AFC290339E04027BBe5477EEA0708A8cd678C98);\r\n//     address payable private lifestyleAccount =\r\n//         payable(0x967127f5b529bA503dF631Fd995bECa94789F2eb);\r\n\r\n//     // Events for transparency\r\n//     event DonationMade(\r\n//         address indexed donor,\r\n//         uint256 amount,\r\n//         string category,\r\n//         uint256 timestamp\r\n//     );\r\n\r\n//     constructor() {}\r\n\r\n//     // Function to donate to a specific category\r\n//     function donate(string memory category) public payable {\r\n//         require(msg.value > 0, \"Donation must be greater than zero\");\r\n\r\n//         // Validate category\r\n//         require(\r\n//             keccak256(abi.encodePacked(category)) ==\r\n//                 keccak256(abi.encodePacked(\"healthcare\")) ||\r\n//                 keccak256(abi.encodePacked(category)) ==\r\n//                 keccak256(abi.encodePacked(\"education\")) ||\r\n//                 keccak256(abi.encodePacked(category)) ==\r\n//                 keccak256(abi.encodePacked(\"lifestyle\")),\r\n//             \"Invalid category\"\r\n//         );\r\n\r\n//         // Transfer ETH to the respective account based on the category\r\n//         if (\r\n//             keccak256(abi.encodePacked(category)) ==\r\n//             keccak256(abi.encodePacked(\"healthcare\"))\r\n//         ) {\r\n//             healthcareAccount.transfer(msg.value);\r\n//         } else if (\r\n//             keccak256(abi.encodePacked(category)) ==\r\n//             keccak256(abi.encodePacked(\"education\"))\r\n//         ) {\r\n//             educationAccount.transfer(msg.value);\r\n//         } else if (\r\n//             keccak256(abi.encodePacked(category)) ==\r\n//             keccak256(abi.encodePacked(\"lifestyle\"))\r\n//         ) {\r\n//             lifestyleAccount.transfer(msg.value);\r\n//         }\r\n\r\n//         // Record the donation\r\n//         donationsByCategory[category].push(\r\n//             Donation(msg.sender, msg.value, category, block.timestamp)\r\n//         );\r\n//         donationsByDonor[msg.sender].push(\r\n//             Donation(msg.sender, msg.value, category, block.timestamp)\r\n//         );\r\n\r\n//         // Emit the event\r\n//         emit DonationMade(msg.sender, msg.value, category, block.timestamp);\r\n//     }\r\n\r\n//     // Function to get donations by category\r\n//     function getDonationsByCategory(\r\n//         string memory category\r\n//     ) public view returns (Donation[] memory) {\r\n//         return donationsByCategory[category];\r\n//     }\r\n\r\n//     // Function to get donations by donor\r\n//     function getDonationsByDonor(\r\n//         address donor\r\n//     ) public view returns (Donation[] memory) {\r\n//         return donationsByDonor[donor];\r\n//     }\r\n// }\r\n\r\npragma solidity ^0.8.0;\r\n\r\nimport \"@openzeppelin/contracts/token/ERC20/ERC20.sol\";\r\nimport \"@openzeppelin/contracts/access/Ownable.sol\";\r\n\r\ncontract DonationTracker is ERC20, Ownable {\r\n    // Struct to represent a donation\r\n    struct Donation {\r\n        address donor;\r\n        uint256 amount;\r\n        string category;\r\n        uint256 timestamp;\r\n    }\r\n\r\n    // Mapping to store donations by category and by donor\r\n    mapping(string => Donation[]) private donationsByCategory;\r\n    mapping(address => Donation[]) private donationsByDonor;\r\n\r\n    // Addresses for each donation category\r\n    address payable private healthcareAccount =\r\n        payable(0x6132b99815E22D9de3F6Db075459631e6664a94A);\r\n    address payable private educationAccount =\r\n        payable(0x6AFC290339E04027BBe5477EEA0708A8cd678C98);\r\n    address payable private lifestyleAccount =\r\n        payable(0x967127f5b529bA503dF631Fd995bECa94789F2eb);\r\n\r\n    // Events for transparency\r\n    event DonationMade(\r\n        address indexed donor,\r\n        uint256 amount,\r\n        string category,\r\n        uint256 timestamp\r\n    );\r\n\r\n    constructor() ERC20(\"DonationToken\", \"DTK\") {\r\n        _mint(msg.sender, 1000 * 10 ** decimals()); // Mint initial supply to the deployer\r\n    }\r\n\r\n    // Function to donate to a specific category\r\n    function donate(string memory category) public payable {\r\n        require(msg.value > 0, \"Donation must be greater than zero\");\r\n\r\n        // Transfer Ether to the respective account based on the category\r\n        if (\r\n            keccak256(abi.encodePacked(category)) ==\r\n            keccak256(abi.encodePacked(\"healthcare\"))\r\n        ) {\r\n            healthcareAccount.transfer(msg.value);\r\n        } else if (\r\n            keccak256(abi.encodePacked(category)) ==\r\n            keccak256(abi.encodePacked(\"education\"))\r\n        ) {\r\n            educationAccount.transfer(msg.value);\r\n        } else if (\r\n            keccak256(abi.encodePacked(category)) ==\r\n            keccak256(abi.encodePacked(\"lifestyle\"))\r\n        ) {\r\n            lifestyleAccount.transfer(msg.value);\r\n        } else {\r\n            revert(\"Invalid category\");\r\n        }\r\n\r\n        // Record the donation\r\n        donationsByCategory[category].push(\r\n            Donation(msg.sender, msg.value, category, block.timestamp)\r\n        );\r\n        donationsByDonor[msg.sender].push(\r\n            Donation(msg.sender, msg.value, category, block.timestamp)\r\n        );\r\n\r\n        // Emit the event\r\n        emit DonationMade(msg.sender, msg.value, category, block.timestamp);\r\n    }\r\n\r\n    // Function to get donations by category\r\n    function getDonationsByCategory(\r\n        string memory category\r\n    ) public view returns (Donation[] memory) {\r\n        return donationsByCategory[category];\r\n    }\r\n\r\n    // Function to get donations by donor\r\n    function getDonationsByDonor(\r\n        address donor\r\n    ) public view returns (Donation[] memory) {\r\n        return donationsByDonor[donor];\r\n    }\r\n}\r\n",
  "sourcePath": "C:\\Users\\Fatima Humayun\\Desktop\\Blockchain-donation-tracker-app\\contracts\\MyDonationToken.sol",
  "compiler": {
    "name": "solc",
    "version": "0.8.0+commit.c7dfd78e.Emscripten.clang"
  },
  "schemaVersion": "3.4.16",
  "updatedAt": "2024-10-03T11:29:58.461Z",
  "networkType": "ethereum",
  "devdoc": {
    "kind": "dev",
    "methods": {
      "allowance(address,address)": {
        "details": "See {IERC20-allowance}."
      },
      "approve(address,uint256)": {
        "details": "See {IERC20-approve}. Requirements: - `spender` cannot be the zero address."
      },
      "balanceOf(address)": {
        "details": "See {IERC20-balanceOf}."
      },
      "decimals()": {
        "details": "Returns the number of decimals used to get its user representation. For example, if `decimals` equals `2`, a balance of `505` tokens should be displayed to a user as `5.05` (`505 / 10 ** 2`). Tokens usually opt for a value of 18, imitating the relationship between Ether and Wei. This is the value {ERC20} uses, unless this function is overridden; NOTE: This information is only used for _display_ purposes: it in no way affects any of the arithmetic of the contract, including {IERC20-balanceOf} and {IERC20-transfer}."
      },
      "decreaseAllowance(address,uint256)": {
        "details": "Atomically decreases the allowance granted to `spender` by the caller. This is an alternative to {approve} that can be used as a mitigation for problems described in {IERC20-approve}. Emits an {Approval} event indicating the updated allowance. Requirements: - `spender` cannot be the zero address. - `spender` must have allowance for the caller of at least `subtractedValue`."
      },
      "increaseAllowance(address,uint256)": {
        "details": "Atomically increases the allowance granted to `spender` by the caller. This is an alternative to {approve} that can be used as a mitigation for problems described in {IERC20-approve}. Emits an {Approval} event indicating the updated allowance. Requirements: - `spender` cannot be the zero address."
      },
      "name()": {
        "details": "Returns the name of the token."
      },
      "owner()": {
        "details": "Returns the address of the current owner."
      },
      "renounceOwnership()": {
        "details": "Leaves the contract without owner. It will not be possible to call `onlyOwner` functions anymore. Can only be called by the current owner. NOTE: Renouncing ownership will leave the contract without an owner, thereby removing any functionality that is only available to the owner."
      },
      "symbol()": {
        "details": "Returns the symbol of the token, usually a shorter version of the name."
      },
      "totalSupply()": {
        "details": "See {IERC20-totalSupply}."
      },
      "transfer(address,uint256)": {
        "details": "See {IERC20-transfer}. Requirements: - `recipient` cannot be the zero address. - the caller must have a balance of at least `amount`."
      },
      "transferFrom(address,address,uint256)": {
        "details": "See {IERC20-transferFrom}. Emits an {Approval} event indicating the updated allowance. This is not required by the EIP. See the note at the beginning of {ERC20}. Requirements: - `sender` and `recipient` cannot be the zero address. - `sender` must have a balance of at least `amount`. - the caller must have allowance for ``sender``'s tokens of at least `amount`."
      },
      "transferOwnership(address)": {
        "details": "Transfers ownership of the contract to a new account (`newOwner`). Can only be called by the current owner."
      }
    },
    "version": 1
  },
  "userdoc": {
    "kind": "user",
    "methods": {},
    "version": 1
  }
}