{
  "contractName": "DonationTracker",
  "abi": [
    {
      "inputs": [],
      "stateMutability": "nonpayable",
      "type": "constructor"
    },
    {
      "anonymous": false,
      "inputs": [
        {
          "indexed": true,
          "internalType": "address",
          "name": "donor",
          "type": "address"
        },
        {
          "indexed": false,
          "internalType": "uint256",
          "name": "amount",
          "type": "uint256"
        },
        {
          "indexed": false,
          "internalType": "string",
          "name": "category",
          "type": "string"
        },
        {
          "indexed": false,
          "internalType": "uint256",
          "name": "timestamp",
          "type": "uint256"
        }
      ],
      "name": "DonationMade",
      "type": "event"
    },
    {
      "anonymous": false,
      "inputs": [
        {
          "indexed": true,
          "internalType": "address",
          "name": "previousOwner",
          "type": "address"
        },
        {
          "indexed": true,
          "internalType": "address",
          "name": "newOwner",
          "type": "address"
        }
      ],
      "name": "OwnershipTransferred",
      "type": "event"
    },
    {
      "inputs": [],
      "name": "owner",
      "outputs": [
        {
          "internalType": "address",
          "name": "",
          "type": "address"
        }
      ],
      "stateMutability": "view",
      "type": "function",
      "constant": true
    },
    {
      "inputs": [],
      "name": "renounceOwnership",
      "outputs": [],
      "stateMutability": "nonpayable",
      "type": "function"
    },
    {
      "inputs": [
        {
          "internalType": "address",
          "name": "newOwner",
          "type": "address"
        }
      ],
      "name": "transferOwnership",
      "outputs": [],
      "stateMutability": "nonpayable",
      "type": "function"
    },
    {
      "inputs": [
        {
          "internalType": "string",
          "name": "category",
          "type": "string"
        }
      ],
      "name": "donate",
      "outputs": [],
      "stateMutability": "payable",
      "type": "function",
      "payable": true
    },
    {
      "inputs": [
        {
          "internalType": "string",
          "name": "category",
          "type": "string"
        }
      ],
      "name": "getDonationsByCategory",
      "outputs": [
        {
          "components": [
            {
              "internalType": "address",
              "name": "donor",
              "type": "address"
            },
            {
              "internalType": "uint256",
              "name": "amount",
              "type": "uint256"
            },
            {
              "internalType": "string",
              "name": "category",
              "type": "string"
            },
            {
              "internalType": "uint256",
              "name": "timestamp",
              "type": "uint256"
            }
          ],
          "internalType": "struct DonationTracker.Donation[]",
          "name": "",
          "type": "tuple[]"
        }
      ],
      "stateMutability": "view",
      "type": "function",
      "constant": true
    },
    {
      "inputs": [
        {
          "internalType": "address",
          "name": "donor",
          "type": "address"
        }
      ],
      "name": "getDonationsByDonor",
      "outputs": [
        {
          "components": [
            {
              "internalType": "address",
              "name": "donor",
              "type": "address"
            },
            {
              "internalType": "uint256",
              "name": "amount",
              "type": "uint256"
            },
            {
              "internalType": "string",
              "name": "category",
              "type": "string"
            },
            {
              "internalType": "uint256",
              "name": "timestamp",
              "type": "uint256"
            }
          ],
          "internalType": "struct DonationTracker.Donation[]",
          "name": "",
          "type": "tuple[]"
        }
      ],
      "stateMutability": "view",
      "type": "function",
      "constant": true
    }
  ],
  "bytecode": "0x6080604052736132b99815e22d9de3f6db075459631e6664a94a600360006101000a81548173ffffffffffffffffffffffffffffffffffffffff021916908373ffffffffffffffffffffffffffffffffffffffff160217905550736afc290339e04027bbe5477eea0708a8cd678c98600460006101000a81548173ffffffffffffffffffffffffffffffffffffffff021916908373ffffffffffffffffffffffffffffffffffffffff16021790555073967127f5b529ba503df631fd995beca94789f2eb600560006101000a81548173ffffffffffffffffffffffffffffffffffffffff021916908373ffffffffffffffffffffffffffffffffffffffff16021790555034801561010f57600080fd5b5061012c61012161013160201b60201c565b61013960201b60201c565b6101fd565b600033905090565b60008060009054906101000a900473ffffffffffffffffffffffffffffffffffffffff169050816000806101000a81548173ffffffffffffffffffffffffffffffffffffffff021916908373ffffffffffffffffffffffffffffffffffffffff1602179055508173ffffffffffffffffffffffffffffffffffffffff168173ffffffffffffffffffffffffffffffffffffffff167f8be0079c531659141344cd1fd0a4f28419497f9722a3daafe3b4186f6b6457e060405160405180910390a35050565b6115ee8061020c6000396000f3fe6080604052600436106100555760003560e01c80633d0d30861461005a5780634e17d2d314610097578063715018a6146100d45780638da5cb5b146100eb578063b5aebc8014610116578063f2fde38b14610132575b600080fd5b34801561006657600080fd5b50610081600480360381019061007c9190610e1e565b61015b565b60405161008e91906112d0565b60405180910390f35b3480156100a357600080fd5b506100be60048036038101906100b99190610e47565b6102f5565b6040516100cb91906112d0565b60405180910390f35b3480156100e057600080fd5b506100e961046e565b005b3480156100f757600080fd5b506101006104f6565b60405161010d91906112b5565b60405180910390f35b610130600480360381019061012b9190610e47565b61051f565b005b34801561013e57600080fd5b5061015960048036038101906101549190610e1e565b610b3a565b005b6060600260008373ffffffffffffffffffffffffffffffffffffffff1673ffffffffffffffffffffffffffffffffffffffff168152602001908152602001600020805480602002602001604051908101604052809291908181526020016000905b828210156102ea57838290600052602060002090600402016040518060800160405290816000820160009054906101000a900473ffffffffffffffffffffffffffffffffffffffff1673ffffffffffffffffffffffffffffffffffffffff1673ffffffffffffffffffffffffffffffffffffffff1681526020016001820154815260200160028201805461024f90611500565b80601f016020809104026020016040519081016040528092919081815260200182805461027b90611500565b80156102c85780601f1061029d576101008083540402835291602001916102c8565b820191906000526020600020905b8154815290600101906020018083116102ab57829003601f168201915b50505050508152602001600382015481525050815260200190600101906101bc565b505050509050919050565b6060600182604051610307919061125f565b9081526020016040518091039020805480602002602001604051908101604052809291908181526020016000905b8282101561046357838290600052602060002090600402016040518060800160405290816000820160009054906101000a900473ffffffffffffffffffffffffffffffffffffffff1673ffffffffffffffffffffffffffffffffffffffff1673ffffffffffffffffffffffffffffffffffffffff168152602001600182015481526020016002820180546103c890611500565b80601f01602080910402602001604051908101604052809291908181526020018280546103f490611500565b80156104415780601f1061041657610100808354040283529160200191610441565b820191906000526020600020905b81548152906001019060200180831161042457829003601f168201915b5050505050815260200160038201548152505081526020019060010190610335565b505050509050919050565b610476610c32565b73ffffffffffffffffffffffffffffffffffffffff166104946104f6565b73ffffffffffffffffffffffffffffffffffffffff16146104ea576040517f08c379a00000000000000000000000000000000000000000000000000000000081526004016104e190611332565b60405180910390fd5b6104f46000610c3a565b565b60008060009054906101000a900473ffffffffffffffffffffffffffffffffffffffff16905090565b60003411610562576040517f08c379a0000000000000000000000000000000000000000000000000000000008152600401610559906112f2565b60405180910390fd5b6040516020016105719061128b565b6040516020818303038152906040528051906020012081604051602001610598919061125f565b60405160208183030381529060405280519060200120148061060357506040516020016105c490611276565b60405160208183030381529060405280519060200120816040516020016105eb919061125f565b60405160208183030381529060405280519060200120145b806106575750604051602001610618906112a0565b604051602081830303815290604052805190602001208160405160200161063f919061125f565b60405160208183030381529060405280519060200120145b610696576040517f08c379a000000000000000000000000000000000000000000000000000000000815260040161068d90611352565b60405180910390fd5b6040516020016106a59061128b565b60405160208183030381529060405280519060200120816040516020016106cc919061125f565b60405160208183030381529060405280519060200120141561075657600360009054906101000a900473ffffffffffffffffffffffffffffffffffffffff1673ffffffffffffffffffffffffffffffffffffffff166108fc349081150290604051600060405180830381858888f19350505050158015610750573d6000803e3d6000fd5b506108d4565b60405160200161076590611276565b604051602081830303815290604052805190602001208160405160200161078c919061125f565b60405160208183030381529060405280519060200120141561081657600460009054906101000a900473ffffffffffffffffffffffffffffffffffffffff1673ffffffffffffffffffffffffffffffffffffffff166108fc349081150290604051600060405180830381858888f19350505050158015610810573d6000803e3d6000fd5b506108d3565b604051602001610825906112a0565b604051602081830303815290604052805190602001208160405160200161084c919061125f565b6040516020818303038152906040528051906020012014156108d257600560009054906101000a900473ffffffffffffffffffffffffffffffffffffffff1673ffffffffffffffffffffffffffffffffffffffff166108fc349081150290604051600060405180830381858888f193505050501580156108d0573d6000803e3d6000fd5b505b5b5b6001816040516108e4919061125f565b908152602001604051809103902060405180608001604052803373ffffffffffffffffffffffffffffffffffffffff16815260200134815260200183815260200142815250908060018154018082558091505060019003906000526020600020906004020160009091909190915060008201518160000160006101000a81548173ffffffffffffffffffffffffffffffffffffffff021916908373ffffffffffffffffffffffffffffffffffffffff1602179055506020820151816001015560408201518160020190805190602001906109bf929190610cfe565b50606082015181600301555050600260003373ffffffffffffffffffffffffffffffffffffffff1673ffffffffffffffffffffffffffffffffffffffff16815260200190815260200160002060405180608001604052803373ffffffffffffffffffffffffffffffffffffffff16815260200134815260200183815260200142815250908060018154018082558091505060019003906000526020600020906004020160009091909190915060008201518160000160006101000a81548173ffffffffffffffffffffffffffffffffffffffff021916908373ffffffffffffffffffffffffffffffffffffffff160217905550602082015181600101556040820151816002019080519060200190610ad8929190610cfe565b506060820151816003015550503373ffffffffffffffffffffffffffffffffffffffff167f8580ecae95ac2e0205deed43d40b277d8d0329bbd0adeb855e64c9e88737340f348342604051610b2f93929190611372565b60405180910390a250565b610b42610c32565b73ffffffffffffffffffffffffffffffffffffffff16610b606104f6565b73ffffffffffffffffffffffffffffffffffffffff1614610bb6576040517f08c379a0000000000000000000000000000000000000000000000000000000008152600401610bad90611332565b60405180910390fd5b600073ffffffffffffffffffffffffffffffffffffffff168173ffffffffffffffffffffffffffffffffffffffff161415610c26576040517f08c379a0000000000000000000000000000000000000000000000000000000008152600401610c1d90611312565b60405180910390fd5b610c2f81610c3a565b50565b600033905090565b60008060009054906101000a900473ffffffffffffffffffffffffffffffffffffffff169050816000806101000a81548173ffffffffffffffffffffffffffffffffffffffff021916908373ffffffffffffffffffffffffffffffffffffffff1602179055508173ffffffffffffffffffffffffffffffffffffffff168173ffffffffffffffffffffffffffffffffffffffff167f8be0079c531659141344cd1fd0a4f28419497f9722a3daafe3b4186f6b6457e060405160405180910390a35050565b828054610d0a90611500565b90600052602060002090601f016020900481019282610d2c5760008555610d73565b82601f10610d4557805160ff1916838001178555610d73565b82800160010185558215610d73579182015b82811115610d72578251825591602001919060010190610d57565b5b509050610d809190610d84565b5090565b5b80821115610d9d576000816000905550600101610d85565b5090565b6000610db4610daf846113e1565b6113b0565b905082815260208101848484011115610dcc57600080fd5b610dd78482856114be565b509392505050565b600081359050610dee816115a1565b92915050565b600082601f830112610e0557600080fd5b8135610e15848260208601610da1565b91505092915050565b600060208284031215610e3057600080fd5b6000610e3e84828501610ddf565b91505092915050565b600060208284031215610e5957600080fd5b600082013567ffffffffffffffff811115610e7357600080fd5b610e7f84828501610df4565b91505092915050565b6000610e9483836111de565b905092915050565b610ea581611482565b82525050565b610eb481611482565b82525050565b6000610ec582611421565b610ecf8185611444565b935083602082028501610ee185611411565b8060005b85811015610f1d5784840389528151610efe8582610e88565b9450610f0983611437565b925060208a01995050600181019050610ee5565b50829750879550505050505092915050565b6000610f3a8261142c565b610f448185611455565b9350610f548185602086016114cd565b610f5d81611590565b840191505092915050565b6000610f738261142c565b610f7d8185611466565b9350610f8d8185602086016114cd565b610f9681611590565b840191505092915050565b6000610fac8261142c565b610fb68185611477565b9350610fc68185602086016114cd565b80840191505092915050565b6000610fdf600983611477565b91507f656475636174696f6e00000000000000000000000000000000000000000000006000830152600982019050919050565b600061101f602283611466565b91507f446f6e6174696f6e206d7573742062652067726561746572207468616e207a6560008301527f726f0000000000000000000000000000000000000000000000000000000000006020830152604082019050919050565b6000611085602683611466565b91507f4f776e61626c653a206e6577206f776e657220697320746865207a65726f206160008301527f64647265737300000000000000000000000000000000000000000000000000006020830152604082019050919050565b60006110eb600a83611477565b91507f6865616c746863617265000000000000000000000000000000000000000000006000830152600a82019050919050565b600061112b600983611477565b91507f6c6966657374796c6500000000000000000000000000000000000000000000006000830152600982019050919050565b600061116b602083611466565b91507f4f776e61626c653a2063616c6c6572206973206e6f7420746865206f776e65726000830152602082019050919050565b60006111ab601083611466565b91507f496e76616c69642063617465676f7279000000000000000000000000000000006000830152602082019050919050565b60006080830160008301516111f66000860182610e9c565b5060208301516112096020860182611241565b50604083015184820360408601526112218282610f2f565b91505060608301516112366060860182611241565b508091505092915050565b61124a816114b4565b82525050565b611259816114b4565b82525050565b600061126b8284610fa1565b915081905092915050565b600061128182610fd2565b9150819050919050565b6000611296826110de565b9150819050919050565b60006112ab8261111e565b9150819050919050565b60006020820190506112ca6000830184610eab565b92915050565b600060208201905081810360008301526112ea8184610eba565b905092915050565b6000602082019050818103600083015261130b81611012565b9050919050565b6000602082019050818103600083015261132b81611078565b9050919050565b6000602082019050818103600083015261134b8161115e565b9050919050565b6000602082019050818103600083015261136b8161119e565b9050919050565b60006060820190506113876000830186611250565b81810360208301526113998185610f68565b90506113a86040830184611250565b949350505050565b6000604051905081810181811067ffffffffffffffff821117156113d7576113d6611561565b5b8060405250919050565b600067ffffffffffffffff8211156113fc576113fb611561565b5b601f19601f8301169050602081019050919050565b6000819050602082019050919050565b600081519050919050565b600081519050919050565b6000602082019050919050565b600082825260208201905092915050565b600082825260208201905092915050565b600082825260208201905092915050565b600081905092915050565b600061148d82611494565b9050919050565b600073ffffffffffffffffffffffffffffffffffffffff82169050919050565b6000819050919050565b82818337600083830152505050565b60005b838110156114eb5780820151818401526020810190506114d0565b838111156114fa576000848401525b50505050565b6000600282049050600182168061151857607f821691505b6020821081141561152c5761152b611532565b5b50919050565b7f4e487b7100000000000000000000000000000000000000000000000000000000600052602260045260246000fd5b7f4e487b7100000000000000000000000000000000000000000000000000000000600052604160045260246000fd5b6000601f19601f8301169050919050565b6115aa81611482565b81146115b557600080fd5b5056fea2646970667358221220fbe031f28e12664ebef82155fd5498c42a5d4c754dff1837e04b36cfa08c790d64736f6c63430008000033",
  "immutableReferences": {},
  "source": "// SPDX-License-Identifier: MIT\r\n// pragma solidity ^0.8.0;\r\n\r\n// import \"@openzeppelin/contracts/token/ERC20/ERC20.sol\";\r\n// import \"@openzeppelin/contracts/access/Ownable.sol\";\r\n\r\n// contract DonationTracker is ERC20, Ownable {\r\n//     // Struct to represent a donation\r\n//     struct Donation {\r\n//         address donor;\r\n//         uint256 amount;\r\n//         string category;\r\n//         uint256 timestamp;\r\n//     }\r\n\r\n//     // Mapping to store donations by category\r\n//     mapping(string => Donation[]) private donationsByCategory;\r\n//     mapping(address => Donation[]) private donationsByDonor;\r\n\r\n//     // Addresses for each donation category\r\n//     address private healthcareAccount =\r\n//         0x6132b99815E22D9de3F6Db075459631e6664a94A;\r\n//     address private educationAccount =\r\n//         0x6AFC290339E04027BBe5477EEA0708A8cd678C98;\r\n//     address private lifestyleAccount =\r\n//         0x967127f5b529bA503dF631Fd995bECa94789F2eb;\r\n\r\n//     // Events for transparency\r\n//     event DonationMade(\r\n//         address indexed donor,\r\n//         uint256 amount,\r\n//         string category,\r\n//         uint256 timestamp\r\n//     );\r\n\r\n//     constructor() ERC20(\"DonationToken\", \"DTK\") {\r\n//         _mint(msg.sender, 1000 * 10 ** decimals()); // Mint initial supply to the deployer\r\n//     }\r\n\r\n//     // Function to donate to a specific category\r\n//     function donate(uint256 amount, string memory category) public {\r\n//         require(amount > 0, \"Donation must be greater than zero\");\r\n//         require(\r\n//             keccak256(abi.encodePacked(category)) ==\r\n//                 keccak256(abi.encodePacked(\"healthcare\")) ||\r\n//                 keccak256(abi.encodePacked(category)) ==\r\n//                 keccak256(abi.encodePacked(\"education\")) ||\r\n//                 keccak256(abi.encodePacked(category)) ==\r\n//                 keccak256(abi.encodePacked(\"lifestyle\")),\r\n//             \"Invalid category\"\r\n//         );\r\n\r\n//         // Transfer tokens to the respective account based on the category\r\n//         if (\r\n//             keccak256(abi.encodePacked(category)) ==\r\n//             keccak256(abi.encodePacked(\"healthcare\"))\r\n//         ) {\r\n//             _transfer(msg.sender, healthcareAccount, amount);\r\n//         } else if (\r\n//             keccak256(abi.encodePacked(category)) ==\r\n//             keccak256(abi.encodePacked(\"education\"))\r\n//         ) {\r\n//             _transfer(msg.sender, educationAccount, amount);\r\n//         } else if (\r\n//             keccak256(abi.encodePacked(category)) ==\r\n//             keccak256(abi.encodePacked(\"lifestyle\"))\r\n//         ) {\r\n//             _transfer(msg.sender, lifestyleAccount, amount);\r\n//         }\r\n\r\n//         // Record the donation\r\n//         donationsByCategory[category].push(\r\n//             Donation(msg.sender, amount, category, block.timestamp)\r\n//         );\r\n//         donationsByDonor[msg.sender].push(\r\n//             Donation(msg.sender, amount, category, block.timestamp)\r\n//         );\r\n\r\n//         // Emit the event\r\n//         emit DonationMade(msg.sender, amount, category, block.timestamp);\r\n//     }\r\n\r\n//     // Function to get donations by category\r\n//     function getDonationsByCategory(\r\n//         string memory category\r\n//     ) public view returns (Donation[] memory) {\r\n//         return donationsByCategory[category];\r\n//     }\r\n\r\n//     // Function to get donations by donor\r\n//     function getDonationsByDonor(\r\n//         address donor\r\n//     ) public view returns (Donation[] memory) {\r\n//         return donationsByDonor[donor];\r\n//     }\r\n\r\n//     // Function to transfer tokens to another address\r\n//     function transferTokens(address to, uint256 amount) public onlyOwner {\r\n//         _transfer(msg.sender, to, amount);\r\n//     }\r\n// }\r\npragma solidity ^0.8.0;\r\n\r\nimport \"@openzeppelin/contracts/access/Ownable.sol\";\r\n\r\ncontract DonationTracker is Ownable {\r\n    // Struct to represent a donation\r\n    struct Donation {\r\n        address donor;\r\n        uint256 amount;\r\n        string category;\r\n        uint256 timestamp;\r\n    }\r\n\r\n    // Mapping to store donations by category and by donor\r\n    mapping(string => Donation[]) private donationsByCategory;\r\n    mapping(address => Donation[]) private donationsByDonor;\r\n\r\n    // Addresses for each donation category\r\n    address payable private healthcareAccount =\r\n        payable(0x6132b99815E22D9de3F6Db075459631e6664a94A);\r\n    address payable private educationAccount =\r\n        payable(0x6AFC290339E04027BBe5477EEA0708A8cd678C98);\r\n    address payable private lifestyleAccount =\r\n        payable(0x967127f5b529bA503dF631Fd995bECa94789F2eb);\r\n\r\n    // Events for transparency\r\n    event DonationMade(\r\n        address indexed donor,\r\n        uint256 amount,\r\n        string category,\r\n        uint256 timestamp\r\n    );\r\n\r\n    constructor() {}\r\n\r\n    // Function to donate to a specific category\r\n    function donate(string memory category) public payable {\r\n        require(msg.value > 0, \"Donation must be greater than zero\");\r\n\r\n        // Validate category\r\n        require(\r\n            keccak256(abi.encodePacked(category)) ==\r\n                keccak256(abi.encodePacked(\"healthcare\")) ||\r\n                keccak256(abi.encodePacked(category)) ==\r\n                keccak256(abi.encodePacked(\"education\")) ||\r\n                keccak256(abi.encodePacked(category)) ==\r\n                keccak256(abi.encodePacked(\"lifestyle\")),\r\n            \"Invalid category\"\r\n        );\r\n\r\n        // Transfer ETH to the respective account based on the category\r\n        if (\r\n            keccak256(abi.encodePacked(category)) ==\r\n            keccak256(abi.encodePacked(\"healthcare\"))\r\n        ) {\r\n            healthcareAccount.transfer(msg.value);\r\n        } else if (\r\n            keccak256(abi.encodePacked(category)) ==\r\n            keccak256(abi.encodePacked(\"education\"))\r\n        ) {\r\n            educationAccount.transfer(msg.value);\r\n        } else if (\r\n            keccak256(abi.encodePacked(category)) ==\r\n            keccak256(abi.encodePacked(\"lifestyle\"))\r\n        ) {\r\n            lifestyleAccount.transfer(msg.value);\r\n        }\r\n\r\n        // Record the donation\r\n        donationsByCategory[category].push(\r\n            Donation(msg.sender, msg.value, category, block.timestamp)\r\n        );\r\n        donationsByDonor[msg.sender].push(\r\n            Donation(msg.sender, msg.value, category, block.timestamp)\r\n        );\r\n\r\n        // Emit the event\r\n        emit DonationMade(msg.sender, msg.value, category, block.timestamp);\r\n    }\r\n\r\n    // Function to get donations by category\r\n    function getDonationsByCategory(\r\n        string memory category\r\n    ) public view returns (Donation[] memory) {\r\n        return donationsByCategory[category];\r\n    }\r\n\r\n    // Function to get donations by donor\r\n    function getDonationsByDonor(\r\n        address donor\r\n    ) public view returns (Donation[] memory) {\r\n        return donationsByDonor[donor];\r\n    }\r\n}\r\n",
  "sourcePath": "C:\\Users\\Fatima Humayun\\Desktop\\Blockchain-donation-tracker-app\\contracts\\MyDonationToken.sol",
  "compiler": {
    "name": "solc",
    "version": "0.8.0+commit.c7dfd78e.Emscripten.clang"
  },
  "schemaVersion": "3.4.16",
  "updatedAt": "2024-10-03T10:45:31.280Z",
  "networkType": "ethereum",
  "devdoc": {
    "kind": "dev",
    "methods": {
      "owner()": {
        "details": "Returns the address of the current owner."
      },
      "renounceOwnership()": {
        "details": "Leaves the contract without owner. It will not be possible to call `onlyOwner` functions anymore. Can only be called by the current owner. NOTE: Renouncing ownership will leave the contract without an owner, thereby removing any functionality that is only available to the owner."
      },
      "transferOwnership(address)": {
        "details": "Transfers ownership of the contract to a new account (`newOwner`). Can only be called by the current owner."
      }
    },
    "version": 1
  },
  "userdoc": {
    "kind": "user",
    "methods": {},
    "version": 1
  }
}